{
  "address": "0x75454aa97a1a1aB33e3852C34FF636A26d5464F2",
  "abi": [
    {
      "inputs": [
        {
          "internalType": "address",
          "name": "_trustedSender",
          "type": "address"
        }
      ],
      "stateMutability": "nonpayable",
      "type": "constructor"
    },
    {
      "inputs": [],
      "name": "AcceptedTaskIdsNotSorted",
      "type": "error"
    },
    {
      "inputs": [],
      "name": "SubmisionTaskIdsNotSorted",
      "type": "error"
    },
    {
      "inputs": [
        {
          "internalType": "uint256[]",
          "name": "_taskIds",
          "type": "uint256[]"
        },
        {
          "internalType": "bytes",
          "name": "_proof",
          "type": "bytes"
        },
        {
          "internalType": "bytes",
          "name": "_report",
          "type": "bytes"
        }
      ],
      "name": "acceptTaskResults",
      "outputs": [
        {
          "components": [
            {
              "internalType": "enum ITaskAcceptorV1.Quantifier",
              "name": "quantifier",
              "type": "uint8"
            },
            {
              "internalType": "uint256[]",
              "name": "taskIds",
              "type": "uint256[]"
            }
          ],
          "internalType": "struct ITaskAcceptorV1.TaskIdSelector",
          "name": "sel",
          "type": "tuple"
        }
      ],
      "stateMutability": "nonpayable",
      "type": "function"
    },
    {
      "inputs": [],
      "name": "trustedSender",
      "outputs": [
        {
          "internalType": "address",
          "name": "",
          "type": "address"
        }
      ],
      "stateMutability": "view",
      "type": "function"
    }
  ],
  "transactionHash": "0xcef63bae9dfec458848f1bf95cdc5c8a9053fa2485880fb87b4905d9611e482e",
  "args": [
    "0x7Df2e133FCFF612aA46995E82A54335F716B66be"
  ],
  "numDeployments": 2,
  "solcInputHash": "bd2f623755dbcd39ab9f784fde330606",
  "bytecode": "0x60a03461007157601f6105c038819003918201601f19168301916001600160401b038311848410176100765780849260209460405283398101031261007157516001600160a01b038116810361007157608052604051610533908161008d823960805181818161017101526103560152f35b600080fd5b634e487b7160e01b600052604160045260246000fdfe6080604081815260048036101561001557600080fd5b600092833560e01c9081636927cac51461030c5750639c45b66e1461003957600080fd5b346103085760607ffffffffffffffffffffffffffffffffffffffffffffffffffffffffffffffffc3601126103085780359267ffffffffffffffff9081851161030557366023860112156103055784830135828111610301578060051b906024968783820101913683116102fd5788358681116102f9576100bd903690890161037a565b50506044358681116102f9576100d6903690890161037a565b50506100e06103ad565b9585875260606020809801527fffffffffffffffffffffffffffffffffffffffffffffffffffffffffffffffe0603f8a51960116850190858210908211176102ce57885283528701848084015b8383106102be57505050506101419061043f565b156102965761014e6103ad565b92818452828401906060825273ffffffffffffffffffffffffffffffffffffffff7f000000000000000000000000000000000000000000000000000000000000000016331460001461028f5760015b60058110156102645785526101b2825161043f565b1561023d5785519684885260608801955191600583101561021357888089878a8a898982870152519380860152835180925280608086019401925b8281106101fc57505050500390f35b8351855286955093810193928101926001016101ed565b602185917f4e487b7100000000000000000000000000000000000000000000000000000000835252fd5b85517f5a35cf2d000000000000000000000000000000000000000000000000000000008152fd5b87846021847f4e487b7100000000000000000000000000000000000000000000000000000000835252fd5b600261019d565b8284517f13ed50ae000000000000000000000000000000000000000000000000000000008152fd5b823581529181019186910161012d565b898660418a7f4e487b7100000000000000000000000000000000000000000000000000000000835252fd5b8580fd5b8480fd5b5080fd5b80fd5b8280fd5b84903461030157817ffffffffffffffffffffffffffffffffffffffffffffffffffffffffffffffffc3601126103015760209073ffffffffffffffffffffffffffffffffffffffff7f0000000000000000000000000000000000000000000000000000000000000000168152f35b9181601f840112156103a85782359167ffffffffffffffff83116103a857602083818601950101116103a857565b600080fd5b604051906040820182811067ffffffffffffffff8211176103cd57604052565b7f4e487b7100000000000000000000000000000000000000000000000000000000600052604160045260246000fd5b80518210156104105760209160051b010190565b7f4e487b7100000000000000000000000000000000000000000000000000000000600052603260045260246000fd5b9060015b82518110156104f65761045681846103fc565b517fffffffffffffffffffffffffffffffffffffffffffffffffffffffffffffffff82018281116104c15761048b90856103fc565b5110156104ef577fffffffffffffffffffffffffffffffffffffffffffffffffffffffffffffffff81146104c157600101610443565b602460007f4e487b710000000000000000000000000000000000000000000000000000000081526011600452fd5b5060009150565b506001915056fea264697066735822122086c12da2f8384ea0d928dd3be7e4b67cda1ee7352a5cd2143b614a20a766549864736f6c63430008120033",
  "devdoc": {
    "kind": "dev",
    "methods": {
      "acceptTaskResults(uint256[],bytes,bytes)": {
        "params": {
          "_proof": "some proof of having completed the identiied tasks that the acceptor can verify.",
          "_report": "some data provided by the submitter that the requester may or may not trust",
          "_taskIds": "a sorted set of taskIds completed in this submission"
        }
      }
    },
    "version": 1
  },
  "userdoc": {
    "errors": {
      "AcceptedTaskIdsNotSorted()": [
        {
          "notice": "The set of accepted task ids was not sorted."
        }
      ],
      "SubmisionTaskIdsNotSorted()": [
        {
          "notice": "The input task ids were not sorted."
        }
      ]
    },
    "kind": "user",
    "methods": {
      "acceptTaskResults(uint256[],bytes,bytes)": {
        "notice": "Accepts one or more elements of a task runner's task results submission, returning the seto tasks that were accepted."
      }
    },
    "notice": "The `TrustMeBroTaskAcceptor` is the first step in fully autonomizing NFTrout. The `setTaskAcceptor` method in NFTrout allows this one to be replaced with something that checks the validity of the TEE that spawned the trout. Along with `setOwner`, these methods allow NFTrout to be owned autonomously in cooperation with TROUTDAO.",
    "version": 1
  },
  "storageLayout": {
    "storage": [],
    "types": null
  }
}