{
  "address": "0xE7326B4aE16A8aEE3698992EBf43a476AD199BD8",
  "abi": [
    {
      "inputs": [
        {
          "internalType": "address",
          "name": "_trustedSender",
          "type": "address"
        }
      ],
      "stateMutability": "nonpayable",
      "type": "constructor"
    },
    {
      "inputs": [],
      "name": "AcceptedTaskIdsNotSorted",
      "type": "error"
    },
    {
      "inputs": [],
      "name": "SubmisionTaskIdsNotSorted",
      "type": "error"
    },
    {
      "inputs": [
        {
          "internalType": "uint256[]",
          "name": "_taskIds",
          "type": "uint256[]"
        },
        {
          "internalType": "bytes",
          "name": "_proof",
          "type": "bytes"
        },
        {
          "internalType": "bytes",
          "name": "_report",
          "type": "bytes"
        }
      ],
      "name": "acceptTaskResults",
      "outputs": [
        {
          "components": [
            {
              "internalType": "enum ITaskAcceptorV1.Quantifier",
              "name": "quantifier",
              "type": "uint8"
            },
            {
              "internalType": "uint256[]",
              "name": "taskIds",
              "type": "uint256[]"
            }
          ],
          "internalType": "struct ITaskAcceptorV1.TaskIdSelector",
          "name": "sel",
          "type": "tuple"
        }
      ],
      "stateMutability": "nonpayable",
      "type": "function"
    },
    {
      "inputs": [],
      "name": "trustedSender",
      "outputs": [
        {
          "internalType": "address",
          "name": "",
          "type": "address"
        }
      ],
      "stateMutability": "view",
      "type": "function"
    }
  ],
  "transactionHash": "0xe33db79a1b8329e1998ab04db1749281b1a7da2e72a99dfb85743614cce6f631",
  "args": [
    "0x7Df2e133FCFF612aA46995E82A54335F716B66be"
  ],
  "numDeployments": 1,
  "solcInputHash": "a55598d4a11c353e3ea9065cd3972b14",
  "bytecode": "0x60a03461007157601f61044838819003918201601f19168301916001600160401b038311848410176100765780849260209460405283398101031261007157516001600160a01b0381168103610071576080526040516103bb908161008d8239608051818181610123015261025a0152f35b600080fd5b634e487b7160e01b600052604160045260246000fdfe6080604081815260048036101561001557600080fd5b600092833560e01c9081636927cac5146102465750639c45b66e1461003957600080fd5b346102425760603660031901126102425780359267ffffffffffffffff9081851161023f573660238601121561023f578483013582811161023b578060051b906024968783820101913683116102375788358681116102335761009f9036908901610289565b5050604435868111610233576100b89036908901610289565b50506100c26102bc565b8581526060602091820152885190969094603f01601f191685019081118582101761022157885283528701848084015b83831061021157505050506101069061031c565b15610201576101136102bc565b81815260608382019081529093337f00000000000000000000000000000000000000000000000000000000000000006001600160a01b0316036101fa5760015b60058110156101e8578552610168825161031c565b156101da578551968488526060880195519160058310156101c957888089878a8a898982870152519380860152835180925280608086019401925b8281106101b257505050500390f35b8351855286955093810193928101926001016101a3565b634e487b7160e01b85526021905283fd5b8551635a35cf2d60e01b8152fd5b634e487b7160e01b8452602182528784fd5b6002610153565b83516309f6a85760e11b81528390fd5b82358152918101918691016100f2565b634e487b7160e01b8652604188528986fd5b8580fd5b8480fd5b5080fd5b80fd5b8280fd5b84903461023b578160031936011261023b577f00000000000000000000000000000000000000000000000000000000000000006001600160a01b03168152602090f35b9181601f840112156102b75782359167ffffffffffffffff83116102b757602083818601950101116102b757565b600080fd5b604051906040820182811067ffffffffffffffff8211176102dc57604052565b634e487b7160e01b600052604160045260246000fd5b80518210156103065760209160051b010190565b634e487b7160e01b600052603260045260246000fd5b9060015b825181101561037e5761033381846102f2565b5160001982018281116103625761034a90856102f2565b51101561037757600019811461036257600101610320565b60246000634e487b7160e01b81526011600452fd5b5060009150565b506001915056fea2646970667358221220613418a6931c5bc26eb7362bb73d39666e410b4c187a7e12381aef7fadf84ecc64736f6c63430008120033",
  "devdoc": {
    "kind": "dev",
    "methods": {
      "acceptTaskResults(uint256[],bytes,bytes)": {
        "params": {
          "_proof": "some proof of having completed the identiied tasks that the acceptor can verify.",
          "_report": "some data provided by the submitter that the requester may or may not trust",
          "_taskIds": "a sorted set of taskIds completed in this submission"
        }
      }
    },
    "version": 1
  },
  "userdoc": {
    "errors": {
      "AcceptedTaskIdsNotSorted()": [
        {
          "notice": "The set of accepted task ids was not sorted."
        }
      ],
      "SubmisionTaskIdsNotSorted()": [
        {
          "notice": "The input task ids were not sorted."
        }
      ]
    },
    "kind": "user",
    "methods": {
      "acceptTaskResults(uint256[],bytes,bytes)": {
        "notice": "Accepts one or more elements of a task runner's task results submission, returning the seto tasks that were accepted."
      }
    },
    "notice": "The `TrustMeBroTaskAcceptor` is the first step in fully autonomizing NFTrout. The `setTaskAcceptor` method in NFTrout allows this one to be replaced with something that checks the validity of the TEE that spawned the trout. Along with `setOwner`, these methods allow NFTrout to be owned autonomously in cooperation with TROUTDAO.",
    "version": 1
  },
  "storageLayout": {
    "storage": [],
    "types": null
  }
}