{
  "address": "0x49f3615caaf3b3a64c395dd359fd0a25a08c7233",
  "abi": [
    {
      "inputs": [
        {
          "internalType": "uint256[]",
          "name": "",
          "type": "uint256[]"
        },
        {
          "internalType": "bytes",
          "name": "",
          "type": "bytes"
        },
        {
          "internalType": "bytes",
          "name": "",
          "type": "bytes"
        }
      ],
      "name": "acceptTaskResults",
      "outputs": [
        {
          "components": [
            {
              "internalType": "enum ITaskAcceptorV1.Quantifier",
              "name": "quantifier",
              "type": "uint8"
            },
            {
              "internalType": "uint256[]",
              "name": "taskIds",
              "type": "uint256[]"
            }
          ],
          "internalType": "struct ITaskAcceptorV1.TaskIdSelector",
          "name": "",
          "type": "tuple"
        }
      ],
      "stateMutability": "nonpayable",
      "type": "function"
    }
  ],
  "transactionHash": "0x78e7089c33cda0deec3dcbebde6b4a0c80c7f7562cc47ce517f9b2868e9081e8",
  "args": [],
  "numDeployments": 3,
  "solcInputHash": "b1f4cd2bc617f984cdac3ef25dc0cab5",
  "bytecode": "0x60808060405234610016576102ea908161001c8239f35b600080fdfe60406080815260048036101561001457600080fd5b600091823560e01c639c45b66e1461002b57600080fd5b3461022e5760607ffffffffffffffffffffffffffffffffffffffffffffffffffffffffffffffffc36011261022e5767ffffffffffffffff928235848111610227573660238201121561022757808401359085821161022e57602490369260051b01011161022b57602435848111610227576100aa9036908501610232565b5050604435848111610227576100c39036908501610232565b50506100cd610265565b8181526060602080920152737df2e133fcff612aa46995e82a54335f716b66be33036101cb578251948186019081118682101761019f578352818552610111610265565b91600195868452828401908152845195838752606087019451906005821015610173575092869491889482870152519580860152855180925280608086019601925b8281106101605785870386f35b8351875295810195928101928401610153565b8360216024927f4e487b7100000000000000000000000000000000000000000000000000000000835252fd5b6024836041877f4e487b7100000000000000000000000000000000000000000000000000000000835252fd5b836064918451917f08c379a0000000000000000000000000000000000000000000000000000000008352820152601260248201527f6e6f7420747275737465642073656e64657200000000000000000000000000006044820152fd5b5080fd5b80fd5b8280fd5b9181601f840112156102605782359167ffffffffffffffff8311610260576020838186019501011161026057565b600080fd5b604051906040820182811067ffffffffffffffff82111761028557604052565b7f4e487b7100000000000000000000000000000000000000000000000000000000600052604160045260246000fdfea264697066735822122038fad5ca6fadd87532be9f313c4a4cdcda21d4b1905e7d6f052eaeb54bda2a2c64736f6c63430008120033",
  "devdoc": {
    "kind": "dev",
    "methods": {},
    "version": 1
  },
  "userdoc": {
    "kind": "user",
    "methods": {},
    "notice": "The `TrustMeBroTaskAcceptor` is the first step in fully autonomizing NFTrout. The `setTaskAcceptor` method in NFTrout allows this one to be replaced with something that checks the validity of the TEE that spawned the trout. Along with `setOwner`, these methods allow NFTrout to be owned autonomously in cooperation with TROUTDAO.",
    "version": 1
  },
  "storageLayout": {
    "storage": [],
    "types": null
  }
}