{
  "address": "0x481E29965d52332021CE114e30eED263Ee6853fF",
  "abi": [
    {
      "inputs": [
        {
          "internalType": "contract LilypadEvents",
          "name": "_lilypadEvents",
          "type": "address"
        }
      ],
      "stateMutability": "nonpayable",
      "type": "constructor"
    },
    {
      "anonymous": false,
      "inputs": [
        {
          "indexed": true,
          "internalType": "address",
          "name": "owner",
          "type": "address"
        },
        {
          "indexed": true,
          "internalType": "address",
          "name": "approved",
          "type": "address"
        },
        {
          "indexed": true,
          "internalType": "uint256",
          "name": "tokenId",
          "type": "uint256"
        }
      ],
      "name": "Approval",
      "type": "event"
    },
    {
      "anonymous": false,
      "inputs": [
        {
          "indexed": true,
          "internalType": "address",
          "name": "owner",
          "type": "address"
        },
        {
          "indexed": true,
          "internalType": "address",
          "name": "operator",
          "type": "address"
        },
        {
          "indexed": false,
          "internalType": "bool",
          "name": "approved",
          "type": "bool"
        }
      ],
      "name": "ApprovalForAll",
      "type": "event"
    },
    {
      "anonymous": false,
      "inputs": [
        {
          "indexed": false,
          "internalType": "uint256",
          "name": "tokenId",
          "type": "uint256"
        }
      ],
      "name": "Delisted",
      "type": "event"
    },
    {
      "anonymous": false,
      "inputs": [
        {
          "indexed": false,
          "internalType": "uint256",
          "name": "tokenId",
          "type": "uint256"
        },
        {
          "indexed": false,
          "internalType": "uint256",
          "name": "fee",
          "type": "uint256"
        }
      ],
      "name": "Listed",
      "type": "event"
    },
    {
      "anonymous": false,
      "inputs": [
        {
          "indexed": true,
          "internalType": "address",
          "name": "previousOwner",
          "type": "address"
        },
        {
          "indexed": true,
          "internalType": "address",
          "name": "newOwner",
          "type": "address"
        }
      ],
      "name": "OwnershipTransferred",
      "type": "event"
    },
    {
      "anonymous": false,
      "inputs": [
        {
          "indexed": false,
          "internalType": "uint256",
          "name": "left",
          "type": "uint256"
        },
        {
          "indexed": false,
          "internalType": "uint256",
          "name": "right",
          "type": "uint256"
        },
        {
          "indexed": false,
          "internalType": "uint256",
          "name": "child",
          "type": "uint256"
        }
      ],
      "name": "Spawned",
      "type": "event"
    },
    {
      "anonymous": false,
      "inputs": [
        {
          "indexed": true,
          "internalType": "address",
          "name": "from",
          "type": "address"
        },
        {
          "indexed": true,
          "internalType": "address",
          "name": "to",
          "type": "address"
        },
        {
          "indexed": true,
          "internalType": "uint256",
          "name": "tokenId",
          "type": "uint256"
        }
      ],
      "name": "Transfer",
      "type": "event"
    },
    {
      "inputs": [
        {
          "internalType": "address",
          "name": "to",
          "type": "address"
        },
        {
          "internalType": "uint256",
          "name": "tokenId",
          "type": "uint256"
        }
      ],
      "name": "approve",
      "outputs": [],
      "stateMutability": "nonpayable",
      "type": "function"
    },
    {
      "inputs": [
        {
          "internalType": "address",
          "name": "owner",
          "type": "address"
        }
      ],
      "name": "balanceOf",
      "outputs": [
        {
          "internalType": "uint256",
          "name": "",
          "type": "uint256"
        }
      ],
      "stateMutability": "view",
      "type": "function"
    },
    {
      "inputs": [
        {
          "internalType": "uint256",
          "name": "_left",
          "type": "uint256"
        },
        {
          "internalType": "uint256",
          "name": "_right",
          "type": "uint256"
        }
      ],
      "name": "breed",
      "outputs": [
        {
          "internalType": "uint256",
          "name": "tokenId",
          "type": "uint256"
        }
      ],
      "stateMutability": "payable",
      "type": "function"
    },
    {
      "inputs": [
        {
          "internalType": "uint256",
          "name": "_tokenId",
          "type": "uint256"
        }
      ],
      "name": "delist",
      "outputs": [],
      "stateMutability": "nonpayable",
      "type": "function"
    },
    {
      "inputs": [
        {
          "internalType": "uint256",
          "name": "tokenId",
          "type": "uint256"
        }
      ],
      "name": "getApproved",
      "outputs": [
        {
          "internalType": "address",
          "name": "",
          "type": "address"
        }
      ],
      "stateMutability": "view",
      "type": "function"
    },
    {
      "inputs": [
        {
          "internalType": "uint256",
          "name": "_left",
          "type": "uint256"
        },
        {
          "internalType": "uint256",
          "name": "_right",
          "type": "uint256"
        }
      ],
      "name": "getBreedingFee",
      "outputs": [
        {
          "internalType": "uint256",
          "name": "fee",
          "type": "uint256"
        }
      ],
      "stateMutability": "view",
      "type": "function"
    },
    {
      "inputs": [
        {
          "internalType": "uint256",
          "name": "offset",
          "type": "uint256"
        },
        {
          "internalType": "uint256",
          "name": "count",
          "type": "uint256"
        }
      ],
      "name": "getStuds",
      "outputs": [
        {
          "components": [
            {
              "internalType": "uint256",
              "name": "tokenId",
              "type": "uint256"
            },
            {
              "internalType": "uint256",
              "name": "fee",
              "type": "uint256"
            }
          ],
          "internalType": "struct NFTrout.Stud[]",
          "name": "",
          "type": "tuple[]"
        }
      ],
      "stateMutability": "view",
      "type": "function"
    },
    {
      "inputs": [
        {
          "internalType": "address",
          "name": "owner",
          "type": "address"
        },
        {
          "internalType": "address",
          "name": "operator",
          "type": "address"
        }
      ],
      "name": "isApprovedForAll",
      "outputs": [
        {
          "internalType": "bool",
          "name": "",
          "type": "bool"
        }
      ],
      "stateMutability": "view",
      "type": "function"
    },
    {
      "inputs": [
        {
          "internalType": "address",
          "name": "",
          "type": "address"
        },
        {
          "internalType": "uint256",
          "name": "",
          "type": "uint256"
        },
        {
          "internalType": "string",
          "name": "",
          "type": "string"
        }
      ],
      "name": "lilypadCancelled",
      "outputs": [],
      "stateMutability": "view",
      "type": "function"
    },
    {
      "inputs": [],
      "name": "lilypadEvents",
      "outputs": [
        {
          "internalType": "contract LilypadEvents",
          "name": "",
          "type": "address"
        }
      ],
      "stateMutability": "view",
      "type": "function"
    },
    {
      "inputs": [
        {
          "internalType": "address",
          "name": "",
          "type": "address"
        },
        {
          "internalType": "uint256",
          "name": "_jobId",
          "type": "uint256"
        },
        {
          "internalType": "enum LilypadResultType",
          "name": "_resultType",
          "type": "uint8"
        },
        {
          "internalType": "string",
          "name": "_result",
          "type": "string"
        }
      ],
      "name": "lilypadFulfilled",
      "outputs": [],
      "stateMutability": "nonpayable",
      "type": "function"
    },
    {
      "inputs": [
        {
          "internalType": "uint256",
          "name": "_tokenId",
          "type": "uint256"
        },
        {
          "internalType": "uint256",
          "name": "_fee",
          "type": "uint256"
        }
      ],
      "name": "list",
      "outputs": [],
      "stateMutability": "nonpayable",
      "type": "function"
    },
    {
      "inputs": [],
      "name": "mint",
      "outputs": [
        {
          "internalType": "uint256",
          "name": "tokenId",
          "type": "uint256"
        },
        {
          "internalType": "uint256",
          "name": "jobId",
          "type": "uint256"
        }
      ],
      "stateMutability": "payable",
      "type": "function"
    },
    {
      "inputs": [],
      "name": "mintFee",
      "outputs": [
        {
          "internalType": "uint256",
          "name": "",
          "type": "uint256"
        }
      ],
      "stateMutability": "view",
      "type": "function"
    },
    {
      "inputs": [],
      "name": "name",
      "outputs": [
        {
          "internalType": "string",
          "name": "",
          "type": "string"
        }
      ],
      "stateMutability": "view",
      "type": "function"
    },
    {
      "inputs": [],
      "name": "owner",
      "outputs": [
        {
          "internalType": "address",
          "name": "",
          "type": "address"
        }
      ],
      "stateMutability": "view",
      "type": "function"
    },
    {
      "inputs": [
        {
          "internalType": "uint256",
          "name": "tokenId",
          "type": "uint256"
        }
      ],
      "name": "ownerOf",
      "outputs": [
        {
          "internalType": "address",
          "name": "",
          "type": "address"
        }
      ],
      "stateMutability": "view",
      "type": "function"
    },
    {
      "inputs": [],
      "name": "renounceOwnership",
      "outputs": [],
      "stateMutability": "nonpayable",
      "type": "function"
    },
    {
      "inputs": [
        {
          "internalType": "uint256",
          "name": "_jobId",
          "type": "uint256"
        }
      ],
      "name": "respawn",
      "outputs": [],
      "stateMutability": "nonpayable",
      "type": "function"
    },
    {
      "inputs": [
        {
          "internalType": "address",
          "name": "from",
          "type": "address"
        },
        {
          "internalType": "address",
          "name": "to",
          "type": "address"
        },
        {
          "internalType": "uint256",
          "name": "tokenId",
          "type": "uint256"
        }
      ],
      "name": "safeTransferFrom",
      "outputs": [],
      "stateMutability": "nonpayable",
      "type": "function"
    },
    {
      "inputs": [
        {
          "internalType": "address",
          "name": "from",
          "type": "address"
        },
        {
          "internalType": "address",
          "name": "to",
          "type": "address"
        },
        {
          "internalType": "uint256",
          "name": "tokenId",
          "type": "uint256"
        },
        {
          "internalType": "bytes",
          "name": "data",
          "type": "bytes"
        }
      ],
      "name": "safeTransferFrom",
      "outputs": [],
      "stateMutability": "nonpayable",
      "type": "function"
    },
    {
      "inputs": [
        {
          "internalType": "address",
          "name": "operator",
          "type": "address"
        },
        {
          "internalType": "bool",
          "name": "approved",
          "type": "bool"
        }
      ],
      "name": "setApprovalForAll",
      "outputs": [],
      "stateMutability": "nonpayable",
      "type": "function"
    },
    {
      "inputs": [
        {
          "internalType": "contract LilypadEvents",
          "name": "_lilypadEvents",
          "type": "address"
        }
      ],
      "name": "setLilypadEvents",
      "outputs": [],
      "stateMutability": "nonpayable",
      "type": "function"
    },
    {
      "inputs": [
        {
          "internalType": "uint256",
          "name": "amount",
          "type": "uint256"
        }
      ],
      "name": "setMintFee",
      "outputs": [],
      "stateMutability": "nonpayable",
      "type": "function"
    },
    {
      "inputs": [
        {
          "internalType": "bytes4",
          "name": "interfaceId",
          "type": "bytes4"
        }
      ],
      "name": "supportsInterface",
      "outputs": [
        {
          "internalType": "bool",
          "name": "",
          "type": "bool"
        }
      ],
      "stateMutability": "view",
      "type": "function"
    },
    {
      "inputs": [],
      "name": "symbol",
      "outputs": [
        {
          "internalType": "string",
          "name": "",
          "type": "string"
        }
      ],
      "stateMutability": "view",
      "type": "function"
    },
    {
      "inputs": [
        {
          "internalType": "uint256",
          "name": "index",
          "type": "uint256"
        }
      ],
      "name": "tokenByIndex",
      "outputs": [
        {
          "internalType": "uint256",
          "name": "",
          "type": "uint256"
        }
      ],
      "stateMutability": "view",
      "type": "function"
    },
    {
      "inputs": [
        {
          "internalType": "address",
          "name": "owner",
          "type": "address"
        },
        {
          "internalType": "uint256",
          "name": "index",
          "type": "uint256"
        }
      ],
      "name": "tokenOfOwnerByIndex",
      "outputs": [
        {
          "internalType": "uint256",
          "name": "",
          "type": "uint256"
        }
      ],
      "stateMutability": "view",
      "type": "function"
    },
    {
      "inputs": [
        {
          "internalType": "uint256",
          "name": "_tokenId",
          "type": "uint256"
        }
      ],
      "name": "tokenURI",
      "outputs": [
        {
          "internalType": "string",
          "name": "",
          "type": "string"
        }
      ],
      "stateMutability": "view",
      "type": "function"
    },
    {
      "inputs": [],
      "name": "totalSupply",
      "outputs": [
        {
          "internalType": "uint256",
          "name": "",
          "type": "uint256"
        }
      ],
      "stateMutability": "view",
      "type": "function"
    },
    {
      "inputs": [
        {
          "internalType": "address",
          "name": "from",
          "type": "address"
        },
        {
          "internalType": "address",
          "name": "to",
          "type": "address"
        },
        {
          "internalType": "uint256",
          "name": "tokenId",
          "type": "uint256"
        }
      ],
      "name": "transferFrom",
      "outputs": [],
      "stateMutability": "nonpayable",
      "type": "function"
    },
    {
      "inputs": [
        {
          "internalType": "address",
          "name": "newOwner",
          "type": "address"
        }
      ],
      "name": "transferOwnership",
      "outputs": [],
      "stateMutability": "nonpayable",
      "type": "function"
    },
    {
      "inputs": [],
      "name": "withdraw",
      "outputs": [],
      "stateMutability": "nonpayable",
      "type": "function"
    }
  ],
  "transactionHash": "0xa5bec0ed8bfd6634a1e36ce7e5b6b69ee3e3f8a2b89598c16f29f56e08418a85",
  "args": [
    "0x378f0D792f7959F667AC15AdBcf26ccA2A52b112"
  ],
  "numDeployments": 4,
  "solcInputHash": "60b02f190617f899e84e2b92ff715ee5",
  "bytecode": "0x6080346200039e57601f906001600160401b0390601f1990620029bd38819003858101841683018581118482101762000388578392829160405283396020928391810103126200039e57516001600160a01b039485821694918590036200039e576200006a620003a3565b9260078452661391951c9bdd5d60ca1b8185015262000088620003a3565b906005825264151493d55560da1b8183015284519584871162000388576000968754966001978881811c911680156200037d575b85821014620003695790818784931162000316575b508490878311600114620002b5578a92620002a9575b5050600019600383901b1c191690871b1787555b8251948511620002955785548681811c911680156200028a575b8382101462000276579081858796959493116200021d575b5081938511600114620001b85750508592620001ac575b5050600019600383901b1c191690821b1790555b600b5460018060a01b0319913383831617600b557f8be0079c531659141344cd1fd0a4f28419497f9722a3daafe3b4186f6b6457e0604051953393169180a3600e541617600e556125f99081620003c48239f35b01519050388062000144565b869593929193168588528388209388905b828210620002035750508411620001e9575b505050811b01905562000158565b015160001960f88460031b161c19169055388080620001db565b8484015186558897909501949384019390810190620001c9565b9091929394508688528288208580880160051c8201928589106200026c575b9188978a9297969594930160051c01915b8281106200025d5750506200012d565b8a81558897508991016200024d565b925081926200023c565b634e487b7160e01b88526022600452602488fd5b90607f169062000115565b634e487b7160e01b87526041600452602487fd5b015190503880620000e7565b90848a9416918b8052868c20928c5b88828210620002ff5750508411620002e5575b505050811b018755620000fb565b015160001960f88460031b161c19169055388080620002d7565b8385015186558d97909501949384019301620002c4565b909150898052848a208780850160051c8201928786106200035f575b918b91869594930160051c01915b82811062000350575050620000d1565b8c81558594508b910162000340565b9250819262000332565b634e487b7160e01b8a52602260045260248afd5b90607f1690620000bc565b634e487b7160e01b600052604160045260246000fd5b600080fd5b60408051919082016001600160401b03811183821017620003885760405256fe6080604081815260048036101561001557600080fd5b600092833560e01c90816301ffc9a7146113d75750806306fdde031461132f578063081812fc1461130f578063095ea7b3146111a25780631249c58b1461111d57806313966db5146110fe57806318160ddd146110df57806323b872dd146110ba5780632f745c591461100e5780633487823e14610fbc5780633ccfd60b14610f7657806342842e0e14610f425780634f6ccce714610eaf57806350fd736714610e4c57806356924f9f14610da25780636352211e14610d7157806367dffc3814610d2d5780636caf25e614610d0457806370a0823114610cde578063715018a614610c8157806389e5ea3b14610c4c5780638da5cb5b14610c2357806395d89b4114610b40578063964bc33f14610acd578063a22cb465146109fe578063b88d4fde14610948578063c87b56dd1461083e578063d5040d65146105ad578063d6d7b3ec14610403578063d9ecad7b146102cb578063e985e9c51461027d578063eddd0d9c146102575763f2fde38b1461018e57600080fd5b34610253576020366003190112610253576101a76114a5565b906101b06115f7565b6001600160a01b03918216928315610201575050600b54826001600160601b0360a01b821617600b55167f8be0079c531659141344cd1fd0a4f28419497f9722a3daafe3b4186f6b6457e08380a380f35b906020608492519162461bcd60e51b8352820152602660248201527f4f776e61626c653a206e6577206f776e657220697320746865207a65726f206160448201526564647265737360d01b6064820152fd5b8280fd5b838234610279576020366003190112610279576102726115f7565b35600c5580f35b5080fd5b50503461027957806003193601126102795760ff8160209361029d6114a5565b6102a56114c0565b6001600160a01b0391821683526005875283832091168252855220549151911615158152f35b506102d536611539565b918282146103c0576103066102fd6102ed8433611fd3565b6102f78633611fd3565b90611f9a565b600c5490611f9a565b341061038a5750917f4cdd6f66cfe78b4626b5d894cb0647743fde90b3eff3addaab1ab4f888d2188360608461033e60209633612561565b506103498533612561565b5061035333612386565b9461037485516103628161154f565b87815283898201528287820152612071565b508451918252868201528484820152a151908152f35b606490602085519162461bcd60e51b8352820152601060248201526f696e73756666696369656e742066656560801b6044820152fd5b606490602085519162461bcd60e51b8352820152601760248201527f74726f75742063616e6e6f742073656c662d62726565640000000000000000006044820152fd5b5090346102535761041336611539565b601054919390828511156105a65782905b8361042f8284611f9a565b111561059e5750820382811161058b57915b61044a83611fa7565b94610457855196876115b9565b838652601f1961046685611fa7565b01875b818110610569575050865b8481106104c8578551602080825288518183018190528291828a0191818c01918d8c5b8382106104a45786860387f35b84518051875283015186840152879650948501949382019360019190910190610497565b6104d28183611f9a565b83811015610556577f1b6847dc741a1b0cd08d278845f9d819d87b734759afb55fe2de5cb82a9ae6720154808952602060128152878a20549088519261051784611581565b83528201526105268289611fbf565b526105318188611fbf565b50600019811461054357600101610474565b634e487b7160e01b885260118452602488fd5b634e487b7160e01b895260328552602489fd5b602090875161057781611581565b8a8152828b81830152828b01015201610469565b634e487b7160e01b865260118252602486fd5b905091610441565b8490610424565b509034610253576080366003190112610253576105c86114a5565b50604435908282101561083a5767ffffffffffffffff90606435828111610836576105f6903690860161150b565b909361060d60018060a01b03600e54163314611f60565b610809576024358652602091600d83528087209461067860268351926106328461154f565b88549384815285600260019b8c8101548b8501520154910152858551968792652f697066732f60d01b8a8501528484013781018b838201520360068101865201846115b9565b6000818152600260205260409020546001600160a01b0316156107af578752600a8352862094815193841161079c57506106b28554611738565b601f8111610756575b5081601f84116001146106f5575092829391839287946106ea575b50501b916000199060031b1c191617905580f35b0151925038806106d6565b919083601f1981168789528489209489905b8883831061073c5750505010610723575b505050811b01905580f35b015160001960f88460031b161c19169055388080610718565b858701518855909601959485019487935090810190610707565b858752828720601f850160051c810191848610610792575b601f0160051c019085905b8281106107875750506106bb565b888155018590610779565b909150819061076e565b634e487b7160e01b875260419052602486fd5b815162461bcd60e51b8152808801859052602e60248201527f45524337323155524953746f726167653a2055524920736574206f66206e6f6e60448201526d32bc34b9ba32b73a103a37b5b2b760911b6064820152608490fd5b815162461bcd60e51b815260208187015260076024820152661b9bdd0810d25160ca1b6044820152606490fd5b8580fd5b8380fd5b509034610253576020918260031936011261083a5735600081815260026020526040902054610877906001600160a01b031615156116c6565b8352600a825280832092815180948290805461089281611738565b918285526001918883821691826000146109215750506001146108e3575b5050506108df9392916108c49103866115b9565b81516108cf8161159d565b5251928284938452830190611480565b0390f35b8552868520879350859291905b82841061090957505050820101816108c46108df6108b0565b8054848b0186015289955088949093019281016108f0565b60ff19168782015293151560051b860190930193508492506108c491506108df90506108b0565b509034610253576080366003190112610253576109636114a5565b9061096c6114c0565b604435906064359467ffffffffffffffff86116109fa57366023870112156109fa57850135936109a761099e866115db565b945194856115b9565b8484528636602487890101116109f7576020866109ef9760246109f49a0183890137860101526109df6109da8433611889565b6117b0565b6109ea838383611951565b611cc9565b611865565b80f35b80fd5b8680fd5b509034610253578060031936011261025357610a186114a5565b9060243591821515809303610ac9576001600160a01b031692338414610a875750338452600560205280842083855260205280842060ff1981541660ff8416179055519081527f17307eab39ab6107e8899845ad3d59bd9653f200f220920489ca2b5937696c3160203392a380f35b6020606492519162461bcd60e51b8352820152601960248201527f4552433732313a20617070726f766520746f2063616c6c6572000000000000006044820152fd5b8480fd5b5034610253576020366003190112610253577fc40fdc946efe80191c467f60727c4abc08254a056035d467a4516a86005ab763916020913590610b22610b1283611712565b6001600160a01b03163314611dd8565b818552601283528481812055610b3782611e76565b5051908152a180f35b505034610279578160031936011261027957805190826001805491610b6483611738565b80865292828116908115610bfb5750600114610b9f575b505050610b8d826108df9403836115b9565b51918291602083526020830190611480565b94508085527fb10e2d527612073b26eecdfd717e6a320cf44b4afac2b0732d9fcbe2b7fa0cf65b828610610be357505050610b8d8260206108df9582010194610b7b565b80546020878701810191909152909501948101610bc6565b6108df975086935060209250610b8d94915060ff191682840152151560051b82010194610b7b565b505034610279578160031936011261027957600b5490516001600160a01b039091168152602090f35b50503461027957602090610c7a6102fd610c736102f7610c6b36611539565b929033611fd3565b9133611fd3565b9051908152f35b83346109f757806003193601126109f757610c9a6115f7565b600b80546001600160a01b0319811690915581906001600160a01b03167f8be0079c531659141344cd1fd0a4f28419497f9722a3daafe3b4186f6b6457e08280a380f35b50503461027957602036600319011261027957602090610c7a610cff6114a5565b61164f565b505034610279578160031936011261027957600e5490516001600160a01b039091168152602090f35b83823461027957602036600319011261027957356001600160a01b0381169081900361027957610d5b6115f7565b6001600160601b0360a01b600e541617600e5580f35b5091346109f75760203660031901126109f75750610d9160209235611712565b90516001600160a01b039091168152f35b50346102535760203660031901126102535780358352600d60205281832091805192610dcd8461154f565b80548085526002600183015492836020880152015491828487015215159182610e42575b5081610e38575b5015610e0c5783610e0884612071565b5080f35b906020606492519162461bcd60e51b835282015260066024820152653737903537b160d11b6044820152fd5b9050151538610df8565b1515915038610df1565b505034610279577f1ea45e30b31292f9d7c5d37d275b2feca555f13f47dce0fdea2f47e8852ecd7890610e7e36611539565b610e8a610b1283611712565b81855260126020528083862055610ea082611e10565b5082519182526020820152a180f35b5082346109f75760203660031901126109f75750803590600854821015610eea57602083610edc84611d54565b91905490519160031b1c8152f35b608490602084519162461bcd60e51b8352820152602c60248201527f455243373231456e756d657261626c653a20676c6f62616c20696e646578206f60448201526b7574206f6620626f756e647360a01b6064820152fd5b505034610279576109ef6109f491610f59366114d6565b91925192610f668461159d565b8684526109df6109da8433611889565b505034610279578160031936011261027957610f906115f7565b8180808047818115610fb3575b3390f115610fa9575080f35b51903d90823e3d90fd5b506108fc610f9d565b83823461027957606036600319011261027957610fd76114a5565b506044359067ffffffffffffffff821161025357610ff79136910161150b565b50506109f460018060a01b03600e54163314611f60565b5091346109f757816003193601126109f7576110286114a5565b602435906110358161164f565b821015611063576001600160a01b031682526006602090815283832091835290815290829020548251908152f35b835162461bcd60e51b8152602081870152602b60248201527f455243373231456e756d657261626c653a206f776e657220696e646578206f7560448201526a74206f6620626f756e647360a81b6064820152608490fd5b83346109f7576109f46110cc366114d6565b916110da6109da8433611889565b611951565b5050346102795781600319360112610279576020906008549051908152f35b505034610279578160031936011261027957602090600c549051908152f35b5082908160031936011261027957600c54341061116c575061116061114133612386565b9183519061114e8261154f565b83825280602083015284820152612071565b82519182526020820152f35b606490602084519162461bcd60e51b8352820152601060248201526f1c185e5b595b9d081c995c5d5a5c995960821b6044820152fd5b50346102535781600319360112610253576111bb6114a5565b6024359290916001600160a01b03919082806111d687611712565b169416938085146112c2578033149081156112a3575b501561123b57848652602052842080546001600160a01b0319168317905561121383611712565b167f8c5be1e5ebec7d5bd14f71427d1e84f3dd0314c0f7b2291e5b200ac8c7c3b9258480a480f35b6020608492519162461bcd60e51b8352820152603d60248201527f4552433732313a20617070726f76652063616c6c6572206973206e6f7420746f60448201527f6b656e206f776e6572206f7220617070726f76656420666f7220616c6c0000006064820152fd5b90508652600560205281862033875260205260ff8287205416386111ec565b506020608492519162461bcd60e51b8352820152602160248201527f4552433732313a20617070726f76616c20746f2063757272656e74206f776e656044820152603960f91b6064820152fd5b5091346109f75760203660031901126109f75750610d9160209235611772565b50503461027957816003193601126102795780519082805461135081611738565b80855291600191808316908115610bfb575060011461137b57505050610b8d826108df9403836115b9565b80809650527f290decd9548b62a8d60345a988386fc84ba6bc95484008f6362f93160ef3e5635b8286106113bf57505050610b8d8260206108df9582010194610b7b565b805460208787018101919091529095019481016113a2565b92505034610253576020366003190112610253573563ffffffff60e01b8116809103610253576020925063780e9d6360e01b811490811561141a575b5015158152f35b6380ac58cd60e01b81149150811561144c575b811561143b575b5038611413565b6301ffc9a760e01b14905038611434565b635b5e139f60e01b8114915061142d565b60005b8381106114705750506000910152565b8181015183820152602001611460565b906020916114998151809281855285808601910161145d565b601f01601f1916010190565b600435906001600160a01b03821682036114bb57565b600080fd5b602435906001600160a01b03821682036114bb57565b60609060031901126114bb576001600160a01b039060043582811681036114bb579160243590811681036114bb579060443590565b9181601f840112156114bb5782359167ffffffffffffffff83116114bb57602083818601950101116114bb57565b60409060031901126114bb576004359060243590565b6060810190811067ffffffffffffffff82111761156b57604052565b634e487b7160e01b600052604160045260246000fd5b6040810190811067ffffffffffffffff82111761156b57604052565b6020810190811067ffffffffffffffff82111761156b57604052565b90601f8019910116810190811067ffffffffffffffff82111761156b57604052565b67ffffffffffffffff811161156b57601f01601f191660200190565b600b546001600160a01b0316330361160b57565b606460405162461bcd60e51b815260206004820152602060248201527f4f776e61626c653a2063616c6c6572206973206e6f7420746865206f776e65726044820152fd5b6001600160a01b0316801561166f57600052600360205260406000205490565b60405162461bcd60e51b815260206004820152602960248201527f4552433732313a2061646472657373207a65726f206973206e6f7420612076616044820152683634b21037bbb732b960b91b6064820152608490fd5b156116cd57565b60405162461bcd60e51b815260206004820152601860248201527f4552433732313a20696e76616c696420746f6b656e20494400000000000000006044820152606490fd5b6000908152600260205260409020546001600160a01b03166117358115156116c6565b90565b90600182811c92168015611768575b602083101461175257565b634e487b7160e01b600052602260045260246000fd5b91607f1691611747565b600081815260026020526040902054611795906001600160a01b031615156116c6565b6000908152600460205260409020546001600160a01b031690565b156117b757565b60405162461bcd60e51b815260206004820152602d60248201527f4552433732313a2063616c6c6572206973206e6f7420746f6b656e206f776e6560448201526c1c881bdc88185c1c1c9bdd9959609a1b6064820152608490fd5b60809060208152603260208201527f4552433732313a207472616e7366657220746f206e6f6e20455243373231526560408201527131b2b4bb32b91034b6b83632b6b2b73a32b960711b60608201520190565b1561186c57565b60405162461bcd60e51b81528061188560048201611812565b0390fd5b906001600160a01b03808061189d84611712565b169316918383149384156118d0575b5083156118ba575b50505090565b6118c691929350611772565b16143880806118b4565b909350600052600560205260406000208260005260205260ff6040600020541692386118ac565b156118fe57565b60405162461bcd60e51b815260206004820152602560248201527f4552433732313a207472616e736665722066726f6d20696e636f72726563742060448201526437bbb732b960d91b6064820152608490fd5b6119759161195e84611712565b6001600160a01b03938484169391851684146118f7565b838216938415611b5c57839182611aa3575090506008549085600052600960205281604060002055600160401b82101561156b576119f592866119d96119c2856001899701600855611d54565b819391549060031b91821b91600019901b19161790565b90555b828603611a70575b506119ee86611712565b16146118f7565b7fddf252ad1be2c89b69c2b068fc378daa952ba7f163c4a11628f55a4df523b3ef60008481526004602052604081206001600160601b0360a01b9081815416905583825260036020526040822060001981540190558482526040822060018154019055858252600260205284604083209182541617905580a4565b611a799061164f565b604060008781526006602052818120838252602052888282205588815260076020522055386119e4565b858303611ab5575b506119f5926119dc565b611ac091925061164f565b600019810191908211611b46576119f59284926000908882526020906007825260409182842054828103611b0f575b508a84528383812055868452600681528284209184525281205592611aab565b8785526006825283852083865282528385205488865260068352848620828752835280858720558552600782528385205538611aef565b634e487b7160e01b600052601160045260246000fd5b60405162461bcd60e51b8152602060048201526024808201527f4552433732313a207472616e7366657220746f20746865207a65726f206164646044820152637265737360e01b6064820152608490fd5b9192600092909190803b15611cbf57611bfb946040518092630a85bd0160e11b9485835233600484015287602484015260448301526080606483015281878160209a8b966084830190611480565b03926001600160a01b03165af1849181611c7f575b50611c6e575050503d600014611c66573d611c2a816115db565b90611c3860405192836115b9565b81528091833d92013e5b80519182611c635760405162461bcd60e51b81528061188560048201611812565b01fd5b506060611c42565b6001600160e01b0319161492509050565b9091508581813d8311611cb8575b611c9781836115b9565b81010312610ac957516001600160e01b031981168103610ac9579038611c10565b503d611c8d565b5050915050600190565b9293600093909291803b15611d4957948491611d239660405180948193630a85bd0160e11b9788845233600485015260018060a01b0380921660248501526044840152608060648401528260209b8c976084830190611480565b0393165af1849181611c7f5750611c6e575050503d600014611c66573d611c2a816115db565b505050915050600190565b600854811015611d8b5760086000527ff3f7a9fe364faab93b216da50a3214154f22a0a2b415b23a84c8169e8b636ee30190600090565b634e487b7160e01b600052603260045260246000fd5b601054811015611d8b5760106000527f1b6847dc741a1b0cd08d278845f9d819d87b734759afb55fe2de5cb82a9ae6720190600090565b15611ddf57565b60405162461bcd60e51b81526020600482015260096024820152683737ba1037bbb732b960b91b6044820152606490fd5b600081815260116020526040812054611e7157601054600160401b811015611e5d579082611e496119c284600160409601601055611da1565b905560105492815260116020522055600190565b634e487b7160e01b82526041600452602482fd5b905090565b6000818152601160205260408120549091908015611f5b5760001990808201818111611f475760105490838201918211611f3357808203611eff575b5050506010548015611eeb57810190611eca82611da1565b909182549160031b1b19169055601055815260116020526040812055600190565b634e487b7160e01b84526031600452602484fd5b611f1d611f0e6119c293611da1565b90549060031b1c928392611da1565b9055845260116020526040842055388080611eb2565b634e487b7160e01b86526011600452602486fd5b634e487b7160e01b85526011600452602485fd5b505090565b15611f6757565b60405162461bcd60e51b815260206004820152600b60248201526a1b9bdd081b1a5b1e5c185960aa1b6044820152606490fd5b91908201809211611b4657565b67ffffffffffffffff811161156b5760051b60200190565b8051821015611d8b5760209160051b010190565b611fdc82611712565b6001600160a01b0390811691161461206b5760405190611ffb82611581565b600a8252691b9bdd081b1a5cdd195960b21b60208301526000526012602052604060002054908115801590612058575b15612034575090565b60405162461bcd60e51b815260206004820152908190611885906024830190611480565b506011602052604060002054151561202b565b50600090565b906121a39060209283810193612087855161221e565b94604080840192612168606861209d865161221e565b996120a8885161221e565b85519b8c927f7b225f6c696c797061645f74656d706c617465223a20226e6674726f7574222c878501526910113632b33a111d101160b11b888501526120f78151809289604a8801910161145d565b83016c111610113934b3b43a111d101160991b604a820152612122825180938960578501910161145d565b016e111610113a37b5b2b724b2111d101160891b605782015261214e825180938860668501910161145d565b0161227d60f01b606682015203604881018b5201896115b9565b600e548251631b32595960e31b81523060048201526060602482015298899883928a926001600160a01b039091169183916064830190611480565b60009c8d9182604483015203925af19687156122145788976121e0575b5096600d8798600296979899835252209351845551600184015551910155565b9080975081813d831161220d575b6121f881836115b9565b81010312612209575195600d6121c0565b8780fd5b503d6121ee565b82513d8a823e3d90fd5b806000917a184f03e93ff9f4daa797ed6e38ed64bf6a1f01000000000000000080821015612378575b506d04ee2d6d415b85acef810000000080831015612369575b50662386f26fc100008083101561235a575b506305f5e1008083101561234b575b506127108083101561233c575b50606482101561232c575b600a80921015612322575b600190816021818601956122b7876115db565b966122c560405198896115b9565b8088526122d4601f19916115db565b01366020890137860101905b6122ec575b5050505090565b600019019083906f181899199a1a9b1b9c1cb0b131b232b360811b8282061a83530491821561231d579190826122e0565b6122e5565b91600101916122a4565b9190606460029104910191612299565b6004919392049101913861228e565b60089193920491019138612281565b60109193920491019138612272565b60209193920491019138612260565b604093508104915038612247565b90600f549160018301600f556040908151916123a18361159d565b60008084526001600160a01b0383169182156124d2576000878152600260205260409020546123dc906001600160a01b031615155b15612515565b600854878352602090600982528083852055600160401b8110156124be579388936109ef9693600286948561241e6119c28b60016124bc9f9d01600855611d54565b90556124298761164f565b858552600682528385208186528252838520879055868552600782528385205560008681526002602052604090205461246c906001600160a01b031615156123d6565b848452600381528284208054600101905585845252812080546001600160a01b031916831790557fddf252ad1be2c89b69c2b068fc378daa952ba7f163c4a11628f55a4df523b3ef8180a4611bad565b565b634e487b7160e01b84526041600452602484fd5b5162461bcd60e51b815260206004820181905260248201527f4552433732313a206d696e7420746f20746865207a65726f20616464726573736044820152606490fd5b1561251c57565b60405162461bcd60e51b815260206004820152601c60248201527f4552433732313a20746f6b656e20616c7265616479206d696e746564000000006044820152606490fd5b6000929183916001600160a01b0391908261257b83611712565b1692811683146125bb5783809361259482948394611fd3565b908282156125b2575bf1156125a65750565b604051903d90823e3d90fd5b506108fc61259d565b50919350505056fea2646970667358221220ac9ba7a77d08e1ec503199ab998a59ffa91f3f5db9b4cf5678a35662a603274064736f6c63430008120033",
  "devdoc": {
    "events": {
      "Approval(address,address,uint256)": {
        "details": "Emitted when `owner` enables `approved` to manage the `tokenId` token."
      },
      "ApprovalForAll(address,address,bool)": {
        "details": "Emitted when `owner` enables or disables (`approved`) `operator` to manage all of its assets."
      },
      "Transfer(address,address,uint256)": {
        "details": "Emitted when `tokenId` token is transferred from `from` to `to`."
      }
    },
    "kind": "dev",
    "methods": {
      "approve(address,uint256)": {
        "details": "See {IERC721-approve}."
      },
      "balanceOf(address)": {
        "details": "See {IERC721-balanceOf}."
      },
      "getApproved(uint256)": {
        "details": "See {IERC721-getApproved}."
      },
      "isApprovedForAll(address,address)": {
        "details": "See {IERC721-isApprovedForAll}."
      },
      "name()": {
        "details": "See {IERC721Metadata-name}."
      },
      "owner()": {
        "details": "Returns the address of the current owner."
      },
      "ownerOf(uint256)": {
        "details": "See {IERC721-ownerOf}."
      },
      "renounceOwnership()": {
        "details": "Leaves the contract without owner. It will not be possible to call `onlyOwner` functions anymore. Can only be called by the current owner. NOTE: Renouncing ownership will leave the contract without an owner, thereby removing any functionality that is only available to the owner."
      },
      "safeTransferFrom(address,address,uint256)": {
        "details": "See {IERC721-safeTransferFrom}."
      },
      "safeTransferFrom(address,address,uint256,bytes)": {
        "details": "See {IERC721-safeTransferFrom}."
      },
      "setApprovalForAll(address,bool)": {
        "details": "See {IERC721-setApprovalForAll}."
      },
      "symbol()": {
        "details": "See {IERC721Metadata-symbol}."
      },
      "tokenByIndex(uint256)": {
        "details": "See {IERC721Enumerable-tokenByIndex}."
      },
      "tokenOfOwnerByIndex(address,uint256)": {
        "details": "See {IERC721Enumerable-tokenOfOwnerByIndex}."
      },
      "totalSupply()": {
        "details": "See {IERC721Enumerable-totalSupply}."
      },
      "transferFrom(address,address,uint256)": {
        "details": "See {IERC721-transferFrom}."
      },
      "transferOwnership(address)": {
        "details": "Transfers ownership of the contract to a new account (`newOwner`). Can only be called by the current owner."
      }
    },
    "version": 1
  },
  "userdoc": {
    "events": {
      "Delisted(uint256)": {
        "notice": "The trout is no longer breedable."
      },
      "Listed(uint256,uint256)": {
        "notice": "The trout was listed as breedable."
      },
      "Spawned(uint256,uint256,uint256)": {
        "notice": "Two trouts have bred to produce a new trout."
      }
    },
    "kind": "user",
    "methods": {
      "breed(uint256,uint256)": {
        "notice": "Breeds any two trout to produce a third trout that will be owned by the caller. This method must be called with enough value to pay for the two trouts' fees and the minting fee."
      },
      "delist(uint256)": {
        "notice": "Makes a trout not breedable."
      },
      "getStuds(uint256,uint256)": {
        "notice": "Paginated list of trout listed for breeding."
      },
      "list(uint256,uint256)": {
        "notice": "Makes a trout breedable."
      },
      "mint()": {
        "notice": "Transmutes money into trout."
      },
      "respawn(uint256)": {
        "notice": "If the trout didn't spawn correctly, you can call this as a last-ditch way to respawn it."
      }
    },
    "version": 1
  },
  "storageLayout": {
    "storage": [
      {
        "astId": 138,
        "contract": "contracts/NFTrout.sol:NFTrout",
        "label": "_name",
        "offset": 0,
        "slot": "0",
        "type": "t_string_storage"
      },
      {
        "astId": 140,
        "contract": "contracts/NFTrout.sol:NFTrout",
        "label": "_symbol",
        "offset": 0,
        "slot": "1",
        "type": "t_string_storage"
      },
      {
        "astId": 144,
        "contract": "contracts/NFTrout.sol:NFTrout",
        "label": "_owners",
        "offset": 0,
        "slot": "2",
        "type": "t_mapping(t_uint256,t_address)"
      },
      {
        "astId": 148,
        "contract": "contracts/NFTrout.sol:NFTrout",
        "label": "_balances",
        "offset": 0,
        "slot": "3",
        "type": "t_mapping(t_address,t_uint256)"
      },
      {
        "astId": 152,
        "contract": "contracts/NFTrout.sol:NFTrout",
        "label": "_tokenApprovals",
        "offset": 0,
        "slot": "4",
        "type": "t_mapping(t_uint256,t_address)"
      },
      {
        "astId": 158,
        "contract": "contracts/NFTrout.sol:NFTrout",
        "label": "_operatorApprovals",
        "offset": 0,
        "slot": "5",
        "type": "t_mapping(t_address,t_mapping(t_address,t_bool))"
      },
      {
        "astId": 1188,
        "contract": "contracts/NFTrout.sol:NFTrout",
        "label": "_ownedTokens",
        "offset": 0,
        "slot": "6",
        "type": "t_mapping(t_address,t_mapping(t_uint256,t_uint256))"
      },
      {
        "astId": 1192,
        "contract": "contracts/NFTrout.sol:NFTrout",
        "label": "_ownedTokensIndex",
        "offset": 0,
        "slot": "7",
        "type": "t_mapping(t_uint256,t_uint256)"
      },
      {
        "astId": 1195,
        "contract": "contracts/NFTrout.sol:NFTrout",
        "label": "_allTokens",
        "offset": 0,
        "slot": "8",
        "type": "t_array(t_uint256)dyn_storage"
      },
      {
        "astId": 1199,
        "contract": "contracts/NFTrout.sol:NFTrout",
        "label": "_allTokensIndex",
        "offset": 0,
        "slot": "9",
        "type": "t_mapping(t_uint256,t_uint256)"
      },
      {
        "astId": 1540,
        "contract": "contracts/NFTrout.sol:NFTrout",
        "label": "_tokenURIs",
        "offset": 0,
        "slot": "10",
        "type": "t_mapping(t_uint256,t_string_storage)"
      },
      {
        "astId": 7,
        "contract": "contracts/NFTrout.sol:NFTrout",
        "label": "_owner",
        "offset": 0,
        "slot": "11",
        "type": "t_address"
      },
      {
        "astId": 5021,
        "contract": "contracts/NFTrout.sol:NFTrout",
        "label": "mintFee",
        "offset": 0,
        "slot": "12",
        "type": "t_uint256"
      },
      {
        "astId": 5027,
        "contract": "contracts/NFTrout.sol:NFTrout",
        "label": "receipts",
        "offset": 0,
        "slot": "13",
        "type": "t_mapping(t_uint256,t_struct(Receipt)5014_storage)"
      },
      {
        "astId": 5030,
        "contract": "contracts/NFTrout.sol:NFTrout",
        "label": "lilypadEvents",
        "offset": 0,
        "slot": "14",
        "type": "t_contract(LilypadEvents)6014"
      },
      {
        "astId": 5033,
        "contract": "contracts/NFTrout.sol:NFTrout",
        "label": "tokenIdCounter",
        "offset": 0,
        "slot": "15",
        "type": "t_struct(Counter)2068_storage"
      },
      {
        "astId": 5037,
        "contract": "contracts/NFTrout.sol:NFTrout",
        "label": "studs",
        "offset": 0,
        "slot": "16",
        "type": "t_struct(UintToUintMap)3458_storage"
      }
    ],
    "types": {
      "t_address": {
        "encoding": "inplace",
        "label": "address",
        "numberOfBytes": "20"
      },
      "t_array(t_bytes32)dyn_storage": {
        "base": "t_bytes32",
        "encoding": "dynamic_array",
        "label": "bytes32[]",
        "numberOfBytes": "32"
      },
      "t_array(t_uint256)dyn_storage": {
        "base": "t_uint256",
        "encoding": "dynamic_array",
        "label": "uint256[]",
        "numberOfBytes": "32"
      },
      "t_bool": {
        "encoding": "inplace",
        "label": "bool",
        "numberOfBytes": "1"
      },
      "t_bytes32": {
        "encoding": "inplace",
        "label": "bytes32",
        "numberOfBytes": "32"
      },
      "t_contract(LilypadEvents)6014": {
        "encoding": "inplace",
        "label": "contract LilypadEvents",
        "numberOfBytes": "20"
      },
      "t_mapping(t_address,t_bool)": {
        "encoding": "mapping",
        "key": "t_address",
        "label": "mapping(address => bool)",
        "numberOfBytes": "32",
        "value": "t_bool"
      },
      "t_mapping(t_address,t_mapping(t_address,t_bool))": {
        "encoding": "mapping",
        "key": "t_address",
        "label": "mapping(address => mapping(address => bool))",
        "numberOfBytes": "32",
        "value": "t_mapping(t_address,t_bool)"
      },
      "t_mapping(t_address,t_mapping(t_uint256,t_uint256))": {
        "encoding": "mapping",
        "key": "t_address",
        "label": "mapping(address => mapping(uint256 => uint256))",
        "numberOfBytes": "32",
        "value": "t_mapping(t_uint256,t_uint256)"
      },
      "t_mapping(t_address,t_uint256)": {
        "encoding": "mapping",
        "key": "t_address",
        "label": "mapping(address => uint256)",
        "numberOfBytes": "32",
        "value": "t_uint256"
      },
      "t_mapping(t_bytes32,t_bytes32)": {
        "encoding": "mapping",
        "key": "t_bytes32",
        "label": "mapping(bytes32 => bytes32)",
        "numberOfBytes": "32",
        "value": "t_bytes32"
      },
      "t_mapping(t_bytes32,t_uint256)": {
        "encoding": "mapping",
        "key": "t_bytes32",
        "label": "mapping(bytes32 => uint256)",
        "numberOfBytes": "32",
        "value": "t_uint256"
      },
      "t_mapping(t_uint256,t_address)": {
        "encoding": "mapping",
        "key": "t_uint256",
        "label": "mapping(uint256 => address)",
        "numberOfBytes": "32",
        "value": "t_address"
      },
      "t_mapping(t_uint256,t_string_storage)": {
        "encoding": "mapping",
        "key": "t_uint256",
        "label": "mapping(uint256 => string)",
        "numberOfBytes": "32",
        "value": "t_string_storage"
      },
      "t_mapping(t_uint256,t_struct(Receipt)5014_storage)": {
        "encoding": "mapping",
        "key": "t_uint256",
        "label": "mapping(uint256 => struct NFTrout.Receipt)",
        "numberOfBytes": "32",
        "value": "t_struct(Receipt)5014_storage"
      },
      "t_mapping(t_uint256,t_uint256)": {
        "encoding": "mapping",
        "key": "t_uint256",
        "label": "mapping(uint256 => uint256)",
        "numberOfBytes": "32",
        "value": "t_uint256"
      },
      "t_string_storage": {
        "encoding": "bytes",
        "label": "string",
        "numberOfBytes": "32"
      },
      "t_struct(Bytes32Set)4539_storage": {
        "encoding": "inplace",
        "label": "struct EnumerableSet.Bytes32Set",
        "members": [
          {
            "astId": 4538,
            "contract": "contracts/NFTrout.sol:NFTrout",
            "label": "_inner",
            "offset": 0,
            "slot": "0",
            "type": "t_struct(Set)4345_storage"
          }
        ],
        "numberOfBytes": "64"
      },
      "t_struct(Bytes32ToBytes32Map)3228_storage": {
        "encoding": "inplace",
        "label": "struct EnumerableMap.Bytes32ToBytes32Map",
        "members": [
          {
            "astId": 3223,
            "contract": "contracts/NFTrout.sol:NFTrout",
            "label": "_keys",
            "offset": 0,
            "slot": "0",
            "type": "t_struct(Bytes32Set)4539_storage"
          },
          {
            "astId": 3227,
            "contract": "contracts/NFTrout.sol:NFTrout",
            "label": "_values",
            "offset": 0,
            "slot": "2",
            "type": "t_mapping(t_bytes32,t_bytes32)"
          }
        ],
        "numberOfBytes": "96"
      },
      "t_struct(Counter)2068_storage": {
        "encoding": "inplace",
        "label": "struct Counters.Counter",
        "members": [
          {
            "astId": 2067,
            "contract": "contracts/NFTrout.sol:NFTrout",
            "label": "_value",
            "offset": 0,
            "slot": "0",
            "type": "t_uint256"
          }
        ],
        "numberOfBytes": "32"
      },
      "t_struct(Receipt)5014_storage": {
        "encoding": "inplace",
        "label": "struct NFTrout.Receipt",
        "members": [
          {
            "astId": 5009,
            "contract": "contracts/NFTrout.sol:NFTrout",
            "label": "tokenId",
            "offset": 0,
            "slot": "0",
            "type": "t_uint256"
          },
          {
            "astId": 5011,
            "contract": "contracts/NFTrout.sol:NFTrout",
            "label": "left",
            "offset": 0,
            "slot": "1",
            "type": "t_uint256"
          },
          {
            "astId": 5013,
            "contract": "contracts/NFTrout.sol:NFTrout",
            "label": "right",
            "offset": 0,
            "slot": "2",
            "type": "t_uint256"
          }
        ],
        "numberOfBytes": "96"
      },
      "t_struct(Set)4345_storage": {
        "encoding": "inplace",
        "label": "struct EnumerableSet.Set",
        "members": [
          {
            "astId": 4340,
            "contract": "contracts/NFTrout.sol:NFTrout",
            "label": "_values",
            "offset": 0,
            "slot": "0",
            "type": "t_array(t_bytes32)dyn_storage"
          },
          {
            "astId": 4344,
            "contract": "contracts/NFTrout.sol:NFTrout",
            "label": "_indexes",
            "offset": 0,
            "slot": "1",
            "type": "t_mapping(t_bytes32,t_uint256)"
          }
        ],
        "numberOfBytes": "64"
      },
      "t_struct(UintToUintMap)3458_storage": {
        "encoding": "inplace",
        "label": "struct EnumerableMap.UintToUintMap",
        "members": [
          {
            "astId": 3457,
            "contract": "contracts/NFTrout.sol:NFTrout",
            "label": "_inner",
            "offset": 0,
            "slot": "0",
            "type": "t_struct(Bytes32ToBytes32Map)3228_storage"
          }
        ],
        "numberOfBytes": "96"
      },
      "t_uint256": {
        "encoding": "inplace",
        "label": "uint256",
        "numberOfBytes": "32"
      }
    }
  }
}