{
  "address": "0x0E9B0116C9E649ae26070F3CCc702798099b8303",
  "abi": [
    {
      "inputs": [
        {
          "internalType": "contract LilypadEvents",
          "name": "_lilypadEvents",
          "type": "address"
        },
        {
          "internalType": "uint256",
          "name": "_mintFee",
          "type": "uint256"
        },
        {
          "internalType": "uint256",
          "name": "_matchmakingBps",
          "type": "uint256"
        },
        {
          "internalType": "bool",
          "name": "_genesisMint",
          "type": "bool"
        }
      ],
      "stateMutability": "nonpayable",
      "type": "constructor"
    },
    {
      "inputs": [],
      "name": "ApprovalCallerNotOwnerNorApproved",
      "type": "error"
    },
    {
      "inputs": [],
      "name": "ApprovalQueryForNonexistentToken",
      "type": "error"
    },
    {
      "inputs": [],
      "name": "BalanceQueryForZeroAddress",
      "type": "error"
    },
    {
      "inputs": [],
      "name": "CannotSelfBreed",
      "type": "error"
    },
    {
      "inputs": [],
      "name": "InvalidQueryRange",
      "type": "error"
    },
    {
      "inputs": [],
      "name": "MintERC2309QuantityExceedsLimit",
      "type": "error"
    },
    {
      "inputs": [],
      "name": "MintToZeroAddress",
      "type": "error"
    },
    {
      "inputs": [],
      "name": "MintZeroQuantity",
      "type": "error"
    },
    {
      "inputs": [
        {
          "internalType": "TokenId",
          "name": "id",
          "type": "uint256"
        }
      ],
      "name": "NoSuchToken",
      "type": "error"
    },
    {
      "inputs": [],
      "name": "NotLilypad",
      "type": "error"
    },
    {
      "inputs": [],
      "name": "NotListed",
      "type": "error"
    },
    {
      "inputs": [],
      "name": "NotOwner",
      "type": "error"
    },
    {
      "inputs": [],
      "name": "OwnerQueryForNonexistentToken",
      "type": "error"
    },
    {
      "inputs": [],
      "name": "OwnershipNotInitializedForExtraData",
      "type": "error"
    },
    {
      "inputs": [
        {
          "internalType": "uint256",
          "name": "amount",
          "type": "uint256"
        }
      ],
      "name": "PaymentRequired",
      "type": "error"
    },
    {
      "inputs": [],
      "name": "TransferCallerNotOwnerNorApproved",
      "type": "error"
    },
    {
      "inputs": [],
      "name": "TransferFromIncorrectOwner",
      "type": "error"
    },
    {
      "inputs": [],
      "name": "TransferToNonERC721ReceiverImplementer",
      "type": "error"
    },
    {
      "inputs": [],
      "name": "TransferToZeroAddress",
      "type": "error"
    },
    {
      "inputs": [],
      "name": "URIQueryForNonexistentToken",
      "type": "error"
    },
    {
      "anonymous": false,
      "inputs": [
        {
          "indexed": true,
          "internalType": "address",
          "name": "owner",
          "type": "address"
        },
        {
          "indexed": true,
          "internalType": "address",
          "name": "approved",
          "type": "address"
        },
        {
          "indexed": true,
          "internalType": "uint256",
          "name": "tokenId",
          "type": "uint256"
        }
      ],
      "name": "Approval",
      "type": "event"
    },
    {
      "anonymous": false,
      "inputs": [
        {
          "indexed": true,
          "internalType": "address",
          "name": "owner",
          "type": "address"
        },
        {
          "indexed": true,
          "internalType": "address",
          "name": "operator",
          "type": "address"
        },
        {
          "indexed": false,
          "internalType": "bool",
          "name": "approved",
          "type": "bool"
        }
      ],
      "name": "ApprovalForAll",
      "type": "event"
    },
    {
      "anonymous": false,
      "inputs": [
        {
          "indexed": true,
          "internalType": "uint256",
          "name": "fromTokenId",
          "type": "uint256"
        },
        {
          "indexed": false,
          "internalType": "uint256",
          "name": "toTokenId",
          "type": "uint256"
        },
        {
          "indexed": true,
          "internalType": "address",
          "name": "from",
          "type": "address"
        },
        {
          "indexed": true,
          "internalType": "address",
          "name": "to",
          "type": "address"
        }
      ],
      "name": "ConsecutiveTransfer",
      "type": "event"
    },
    {
      "anonymous": false,
      "inputs": [
        {
          "indexed": true,
          "internalType": "TokenId",
          "name": "tokenId",
          "type": "uint256"
        }
      ],
      "name": "Delisted",
      "type": "event"
    },
    {
      "anonymous": false,
      "inputs": [
        {
          "indexed": false,
          "internalType": "uint256",
          "name": "mintFee",
          "type": "uint256"
        },
        {
          "indexed": false,
          "internalType": "uint256",
          "name": "matchmakingBps",
          "type": "uint256"
        }
      ],
      "name": "FeesChanged",
      "type": "event"
    },
    {
      "anonymous": false,
      "inputs": [
        {
          "indexed": true,
          "internalType": "TokenId",
          "name": "tokenId",
          "type": "uint256"
        },
        {
          "indexed": false,
          "internalType": "uint256",
          "name": "fee",
          "type": "uint256"
        }
      ],
      "name": "Listed",
      "type": "event"
    },
    {
      "anonymous": false,
      "inputs": [
        {
          "indexed": true,
          "internalType": "address",
          "name": "previousOwner",
          "type": "address"
        },
        {
          "indexed": true,
          "internalType": "address",
          "name": "newOwner",
          "type": "address"
        }
      ],
      "name": "OwnershipTransferred",
      "type": "event"
    },
    {
      "anonymous": false,
      "inputs": [
        {
          "indexed": true,
          "internalType": "TokenId",
          "name": "left",
          "type": "uint256"
        },
        {
          "indexed": true,
          "internalType": "TokenId",
          "name": "right",
          "type": "uint256"
        },
        {
          "indexed": false,
          "internalType": "JobId",
          "name": "job",
          "type": "uint256"
        },
        {
          "indexed": false,
          "internalType": "TokenId",
          "name": "child",
          "type": "uint256"
        }
      ],
      "name": "Spawned",
      "type": "event"
    },
    {
      "anonymous": false,
      "inputs": [
        {
          "indexed": true,
          "internalType": "address",
          "name": "from",
          "type": "address"
        },
        {
          "indexed": true,
          "internalType": "address",
          "name": "to",
          "type": "address"
        },
        {
          "indexed": true,
          "internalType": "uint256",
          "name": "tokenId",
          "type": "uint256"
        }
      ],
      "name": "Transfer",
      "type": "event"
    },
    {
      "inputs": [
        {
          "internalType": "address",
          "name": "to",
          "type": "address"
        },
        {
          "internalType": "uint256",
          "name": "tokenId",
          "type": "uint256"
        }
      ],
      "name": "approve",
      "outputs": [],
      "stateMutability": "payable",
      "type": "function"
    },
    {
      "inputs": [
        {
          "internalType": "address",
          "name": "owner",
          "type": "address"
        }
      ],
      "name": "balanceOf",
      "outputs": [
        {
          "internalType": "uint256",
          "name": "",
          "type": "uint256"
        }
      ],
      "stateMutability": "view",
      "type": "function"
    },
    {
      "inputs": [
        {
          "internalType": "TokenId",
          "name": "_left",
          "type": "uint256"
        },
        {
          "internalType": "TokenId",
          "name": "_right",
          "type": "uint256"
        }
      ],
      "name": "breed",
      "outputs": [
        {
          "internalType": "TokenId",
          "name": "tokenId",
          "type": "uint256"
        }
      ],
      "stateMutability": "payable",
      "type": "function"
    },
    {
      "inputs": [
        {
          "internalType": "TokenId",
          "name": "_tokenId",
          "type": "uint256"
        }
      ],
      "name": "delist",
      "outputs": [],
      "stateMutability": "nonpayable",
      "type": "function"
    },
    {
      "inputs": [
        {
          "internalType": "address",
          "name": "",
          "type": "address"
        }
      ],
      "name": "earnings",
      "outputs": [
        {
          "internalType": "uint256",
          "name": "",
          "type": "uint256"
        }
      ],
      "stateMutability": "view",
      "type": "function"
    },
    {
      "inputs": [
        {
          "internalType": "uint256",
          "name": "tokenId",
          "type": "uint256"
        }
      ],
      "name": "explicitOwnershipOf",
      "outputs": [
        {
          "components": [
            {
              "internalType": "address",
              "name": "addr",
              "type": "address"
            },
            {
              "internalType": "uint64",
              "name": "startTimestamp",
              "type": "uint64"
            },
            {
              "internalType": "bool",
              "name": "burned",
              "type": "bool"
            },
            {
              "internalType": "uint24",
              "name": "extraData",
              "type": "uint24"
            }
          ],
          "internalType": "struct IERC721A.TokenOwnership",
          "name": "",
          "type": "tuple"
        }
      ],
      "stateMutability": "view",
      "type": "function"
    },
    {
      "inputs": [
        {
          "internalType": "uint256[]",
          "name": "tokenIds",
          "type": "uint256[]"
        }
      ],
      "name": "explicitOwnershipsOf",
      "outputs": [
        {
          "components": [
            {
              "internalType": "address",
              "name": "addr",
              "type": "address"
            },
            {
              "internalType": "uint64",
              "name": "startTimestamp",
              "type": "uint64"
            },
            {
              "internalType": "bool",
              "name": "burned",
              "type": "bool"
            },
            {
              "internalType": "uint24",
              "name": "extraData",
              "type": "uint24"
            }
          ],
          "internalType": "struct IERC721A.TokenOwnership[]",
          "name": "",
          "type": "tuple[]"
        }
      ],
      "stateMutability": "view",
      "type": "function"
    },
    {
      "inputs": [
        {
          "internalType": "uint256",
          "name": "tokenId",
          "type": "uint256"
        }
      ],
      "name": "getApproved",
      "outputs": [
        {
          "internalType": "address",
          "name": "",
          "type": "address"
        }
      ],
      "stateMutability": "view",
      "type": "function"
    },
    {
      "inputs": [
        {
          "internalType": "TokenId",
          "name": "_left",
          "type": "uint256"
        },
        {
          "internalType": "TokenId",
          "name": "_right",
          "type": "uint256"
        }
      ],
      "name": "getBreedingFee",
      "outputs": [
        {
          "internalType": "uint256",
          "name": "fee",
          "type": "uint256"
        }
      ],
      "stateMutability": "view",
      "type": "function"
    },
    {
      "inputs": [
        {
          "internalType": "uint256",
          "name": "_offset",
          "type": "uint256"
        },
        {
          "internalType": "uint256",
          "name": "_count",
          "type": "uint256"
        }
      ],
      "name": "getStuds",
      "outputs": [
        {
          "components": [
            {
              "internalType": "TokenId",
              "name": "tokenId",
              "type": "uint256"
            },
            {
              "internalType": "uint256",
              "name": "fee",
              "type": "uint256"
            }
          ],
          "internalType": "struct NFTrout.Stud[]",
          "name": "",
          "type": "tuple[]"
        }
      ],
      "stateMutability": "view",
      "type": "function"
    },
    {
      "inputs": [
        {
          "internalType": "address",
          "name": "owner",
          "type": "address"
        },
        {
          "internalType": "address",
          "name": "operator",
          "type": "address"
        }
      ],
      "name": "isApprovedForAll",
      "outputs": [
        {
          "internalType": "bool",
          "name": "",
          "type": "bool"
        }
      ],
      "stateMutability": "view",
      "type": "function"
    },
    {
      "inputs": [
        {
          "internalType": "address",
          "name": "",
          "type": "address"
        },
        {
          "internalType": "uint256",
          "name": "_jobId",
          "type": "uint256"
        },
        {
          "internalType": "string",
          "name": "",
          "type": "string"
        }
      ],
      "name": "lilypadCancelled",
      "outputs": [],
      "stateMutability": "nonpayable",
      "type": "function"
    },
    {
      "inputs": [],
      "name": "lilypadEvents",
      "outputs": [
        {
          "internalType": "contract LilypadEvents",
          "name": "",
          "type": "address"
        }
      ],
      "stateMutability": "view",
      "type": "function"
    },
    {
      "inputs": [
        {
          "internalType": "address",
          "name": "",
          "type": "address"
        },
        {
          "internalType": "uint256",
          "name": "_jobId",
          "type": "uint256"
        },
        {
          "internalType": "enum LilypadResultType",
          "name": "_resultType",
          "type": "uint8"
        },
        {
          "internalType": "string",
          "name": "_result",
          "type": "string"
        }
      ],
      "name": "lilypadFulfilled",
      "outputs": [],
      "stateMutability": "nonpayable",
      "type": "function"
    },
    {
      "inputs": [
        {
          "internalType": "TokenId",
          "name": "_tokenId",
          "type": "uint256"
        },
        {
          "internalType": "uint256",
          "name": "_fee",
          "type": "uint256"
        }
      ],
      "name": "list",
      "outputs": [],
      "stateMutability": "nonpayable",
      "type": "function"
    },
    {
      "inputs": [],
      "name": "matchmakingBps",
      "outputs": [
        {
          "internalType": "uint256",
          "name": "",
          "type": "uint256"
        }
      ],
      "stateMutability": "view",
      "type": "function"
    },
    {
      "inputs": [],
      "name": "mint",
      "outputs": [
        {
          "components": [
            {
              "internalType": "TokenId",
              "name": "tokenId",
              "type": "uint256"
            },
            {
              "internalType": "TokenId",
              "name": "left",
              "type": "uint256"
            },
            {
              "internalType": "TokenId",
              "name": "right",
              "type": "uint256"
            },
            {
              "internalType": "JobId",
              "name": "jobId",
              "type": "uint256"
            }
          ],
          "internalType": "struct NFTrout.Receipt",
          "name": "",
          "type": "tuple"
        }
      ],
      "stateMutability": "payable",
      "type": "function"
    },
    {
      "inputs": [],
      "name": "mintFee",
      "outputs": [
        {
          "internalType": "uint256",
          "name": "",
          "type": "uint256"
        }
      ],
      "stateMutability": "view",
      "type": "function"
    },
    {
      "inputs": [],
      "name": "name",
      "outputs": [
        {
          "internalType": "string",
          "name": "",
          "type": "string"
        }
      ],
      "stateMutability": "view",
      "type": "function"
    },
    {
      "inputs": [],
      "name": "owner",
      "outputs": [
        {
          "internalType": "address",
          "name": "",
          "type": "address"
        }
      ],
      "stateMutability": "view",
      "type": "function"
    },
    {
      "inputs": [
        {
          "internalType": "uint256",
          "name": "tokenId",
          "type": "uint256"
        }
      ],
      "name": "ownerOf",
      "outputs": [
        {
          "internalType": "address",
          "name": "",
          "type": "address"
        }
      ],
      "stateMutability": "view",
      "type": "function"
    },
    {
      "inputs": [
        {
          "internalType": "TokenId",
          "name": "",
          "type": "uint256"
        }
      ],
      "name": "receipts",
      "outputs": [
        {
          "internalType": "TokenId",
          "name": "tokenId",
          "type": "uint256"
        },
        {
          "internalType": "TokenId",
          "name": "left",
          "type": "uint256"
        },
        {
          "internalType": "TokenId",
          "name": "right",
          "type": "uint256"
        },
        {
          "internalType": "JobId",
          "name": "jobId",
          "type": "uint256"
        }
      ],
      "stateMutability": "view",
      "type": "function"
    },
    {
      "inputs": [],
      "name": "renounceOwnership",
      "outputs": [],
      "stateMutability": "nonpayable",
      "type": "function"
    },
    {
      "inputs": [
        {
          "internalType": "address",
          "name": "from",
          "type": "address"
        },
        {
          "internalType": "address",
          "name": "to",
          "type": "address"
        },
        {
          "internalType": "uint256",
          "name": "tokenId",
          "type": "uint256"
        }
      ],
      "name": "safeTransferFrom",
      "outputs": [],
      "stateMutability": "payable",
      "type": "function"
    },
    {
      "inputs": [
        {
          "internalType": "address",
          "name": "from",
          "type": "address"
        },
        {
          "internalType": "address",
          "name": "to",
          "type": "address"
        },
        {
          "internalType": "uint256",
          "name": "tokenId",
          "type": "uint256"
        },
        {
          "internalType": "bytes",
          "name": "_data",
          "type": "bytes"
        }
      ],
      "name": "safeTransferFrom",
      "outputs": [],
      "stateMutability": "payable",
      "type": "function"
    },
    {
      "inputs": [
        {
          "internalType": "address",
          "name": "operator",
          "type": "address"
        },
        {
          "internalType": "bool",
          "name": "approved",
          "type": "bool"
        }
      ],
      "name": "setApprovalForAll",
      "outputs": [],
      "stateMutability": "nonpayable",
      "type": "function"
    },
    {
      "inputs": [
        {
          "internalType": "uint256",
          "name": "_mintFee",
          "type": "uint256"
        },
        {
          "internalType": "uint256",
          "name": "_matchBps",
          "type": "uint256"
        }
      ],
      "name": "setFees",
      "outputs": [],
      "stateMutability": "nonpayable",
      "type": "function"
    },
    {
      "inputs": [
        {
          "internalType": "contract LilypadEvents",
          "name": "_lilypadEvents",
          "type": "address"
        }
      ],
      "name": "setLilypadEvents",
      "outputs": [],
      "stateMutability": "nonpayable",
      "type": "function"
    },
    {
      "inputs": [
        {
          "internalType": "bytes4",
          "name": "interfaceId",
          "type": "bytes4"
        }
      ],
      "name": "supportsInterface",
      "outputs": [
        {
          "internalType": "bool",
          "name": "",
          "type": "bool"
        }
      ],
      "stateMutability": "view",
      "type": "function"
    },
    {
      "inputs": [],
      "name": "symbol",
      "outputs": [
        {
          "internalType": "string",
          "name": "",
          "type": "string"
        }
      ],
      "stateMutability": "view",
      "type": "function"
    },
    {
      "inputs": [
        {
          "internalType": "uint256",
          "name": "_tokenId",
          "type": "uint256"
        }
      ],
      "name": "tokenURI",
      "outputs": [
        {
          "internalType": "string",
          "name": "",
          "type": "string"
        }
      ],
      "stateMutability": "view",
      "type": "function"
    },
    {
      "inputs": [
        {
          "internalType": "address",
          "name": "owner",
          "type": "address"
        }
      ],
      "name": "tokensOfOwner",
      "outputs": [
        {
          "internalType": "uint256[]",
          "name": "",
          "type": "uint256[]"
        }
      ],
      "stateMutability": "view",
      "type": "function"
    },
    {
      "inputs": [
        {
          "internalType": "address",
          "name": "owner",
          "type": "address"
        },
        {
          "internalType": "uint256",
          "name": "start",
          "type": "uint256"
        },
        {
          "internalType": "uint256",
          "name": "stop",
          "type": "uint256"
        }
      ],
      "name": "tokensOfOwnerIn",
      "outputs": [
        {
          "internalType": "uint256[]",
          "name": "",
          "type": "uint256[]"
        }
      ],
      "stateMutability": "view",
      "type": "function"
    },
    {
      "inputs": [],
      "name": "totalSupply",
      "outputs": [
        {
          "internalType": "uint256",
          "name": "",
          "type": "uint256"
        }
      ],
      "stateMutability": "view",
      "type": "function"
    },
    {
      "inputs": [
        {
          "internalType": "address",
          "name": "from",
          "type": "address"
        },
        {
          "internalType": "address",
          "name": "to",
          "type": "address"
        },
        {
          "internalType": "uint256",
          "name": "tokenId",
          "type": "uint256"
        }
      ],
      "name": "transferFrom",
      "outputs": [],
      "stateMutability": "payable",
      "type": "function"
    },
    {
      "inputs": [
        {
          "internalType": "address",
          "name": "newOwner",
          "type": "address"
        }
      ],
      "name": "transferOwnership",
      "outputs": [],
      "stateMutability": "nonpayable",
      "type": "function"
    },
    {
      "inputs": [],
      "name": "withdraw",
      "outputs": [],
      "stateMutability": "nonpayable",
      "type": "function"
    }
  ],
  "transactionHash": "0x656064710eed2c65489be7115e9b1d8bc1580251ce66c34bb26b7e961875c8d7",
  "args": [
    "0x11C61690d308f89217D296318818713aa055b412",
    "1000000000000000000",
    500,
    true
  ],
  "numDeployments": 7,
  "solcInputHash": "e66aca37f74045796f124e3e1722a108",
  "bytecode": "0x608034620007f057601f620031d738819003918201601f191683019291906001600160401b03841183851017620006e1578160809284926040968752833981010312620007f0578051906001600160a01b0382168203620007f0576020810151606084830151920151928315158403620007f0576200007d620007f5565b600d81526c4e4654726f75742047656e203160981b6020820152620000a1620007f5565b600681526554524f55543160d01b6020820152815190916001600160401b038211620006e15760025490600182811c92168015620007e5575b6020831014620006c05781601f84931162000781575b50602090601f83116001146200070357600092620006f7575b50508160011b916000199060031b1c1916176002555b80516001600160401b038111620006e157600391825490600182811c92168015620006d6575b6020831014620006c05781601f84931162000668575b50602090601f8311600114620005fe57600092620005f2575b50508160011b9160001990841b1c19161790555b60016000908155600880546001600160a01b03198082163390811790935593926001600160a01b03909116907f8be0079c531659141344cd1fd0a4f28419497f9722a3daafe3b4186f6b6457e09080a360018060a01b031690600d541617600d55600955600a5562000203575b516129a19081620008168239f35b73a885b1f77e4185f98b4d4dbe752b212b18b5d551806000526000609660207c020000000000000000a9ad6c62611884672dfef7e20a115778c4b0bab16005948583528685206824000000000000002481540190554260a01b9060018652600490818552828117898820558660018a51602481527fdeaa91b6123d068f5821d0fb0678463d1a8a6079fe8af5de3ce5e896dcf9133d978891a4602586557356e5f834f88f9f7631e9d6a43254e173478ce06a808752876020528887206823000000000000002381540190556025875281602052828117898820558660258660208c5160478152a46048865573f29ac257c03cba76da7d3c4a34f2ca14b563260d808752876020528887206819000000000000001981540190556048875281602052828117898820558660488660208c5160608152a46061865573bd34678c8e17d4d6f221b4cb912d79c3443f803480875287602052888720680c000000000000000c81540190556061875281602052828117898820558660618660208c51606c8152a4606d8655737b9bb19911763a372e35f95d0e31031c0884b6ec80875287602052888720680b000000000000000b8154019055606d8752816020528281178988205586606d8660208c5160778152a46078865573ed03ea9c96ec39097548256e428a163e5f524e47808752876020528887206809000000000000000981540190556078875281602052828117898820558660788660208c5160808152a46081865573404e70a162487c9af8982a89a5453f389d5257b1808752876020528887206806000000000000000681540190556081875281602052828117898820558660818660208c5160868152a460878655737fdb709f97dcd5f5a51054ad84a51107b2c15ef3808752876020528887206805000000000000000581540190556087875281602052828117898820558660878660208c51608b8152a4608c865573ae378d2e106d5c3ebdb7d960bd9c9093e23e680f80875287602052888720680400000000000000048154019055608c8752816020528281178988205586608c8660208c51608f8152a460908655730532bf0916f509883eaa1eca5b270d753e1528558087528760205288872090680300000000000000039182815401905560908852826020528381178a8920558760908760208d5160928152a460938755732772c7df084cbe204576731d711b622234bdd9a790818852886020528988209081540190556093875281602052828117898820558660938660208c5160958152a484865573a9ad6c62611884672dfef7e20a115778c4b0bab196878752602052878620680100000000000000018154019055848652602052178584205560208551838152a46097600055620001f5565b01519050388062000174565b6000858152602081209350601f198516905b8181106200064f575090846001959493921062000636575b505050811b01905562000188565b015160001983861b60f8161c1916905538808062000628565b9293602060018192878601518155019501930162000610565b909150836000526020600020601f840160051c81019160208510620006b5575b90601f859493920160051c01905b818110620006a557506200015b565b6000815584935060010162000696565b909150819062000688565b634e487b7160e01b600052602260045260246000fd5b91607f169162000145565b634e487b7160e01b600052604160045260246000fd5b01519050388062000109565b600260009081529350600080516020620031b783398151915291905b601f198416851062000765576001945083601f198116106200074b575b505050811b016002556200011f565b015160001960f88460031b161c191690553880806200073c565b818101518355602094850194600190930192909101906200071f565b6002600052909150600080516020620031b7833981519152601f840160051c81019160208510620007da575b90601f859493920160051c01905b818110620007ca5750620000f0565b60008155849350600101620007bb565b9091508190620007ad565b91607f1691620000da565b600080fd5b60408051919082016001600160401b03811183821017620006e15760405256fe6080604052600436101561001257600080fd5b60003560e01c806301ffc9a71461026757806306fdde0314610262578063081812fc1461025d578063095ea7b3146102585780630b78f9c0146102535780630f7ee1ec1461024e5780631249c58b1461024957806313966db51461024457806318160ddd1461023f5780631e8f50f31461023a57806323b872dd146102355780633487823e146102305780633ccfd60b1461022b57806342842e0e1461022657806350fd736714610221578063543fd3131461021c5780635bbb2177146102175780636352211e1461021257806367dffc381461020d5780636caf25e61461020857806370a0823114610203578063715018a6146101fe5780638462151c146101f957806389e5ea3b146101f45780638da5cb5b146101ef57806395d89b41146101ea578063964bc33f146101e557806399a2557a146101e0578063a22cb465146101db578063b88d4fde146101d6578063c23dc68f146101d1578063c87b56dd146101cc578063d5040d65146101c7578063d6d7b3ec146101c2578063d9ecad7b146101bd578063e985e9c5146101b85763f2fde38b146101b357600080fd5b6113b9565b611351565b61121d565b611166565b6110b4565b611048565b610fe5565b610f5a565b610e0d565b610dd1565b610d63565b610cbc565b610c93565b610c3f565b610b87565b610aee565b610abf565b610a96565b610a4f565b610a20565b6109bb565b610900565b610879565b610856565b61080e565b610753565b610712565b6106c8565b6106a1565b610683565b6105f7565b6105a9565b610552565b610497565b610432565b61034d565b610283565b6001600160e01b031981160361027e57565b600080fd5b3461027e57602036600319011261027e5760206004356102a28161026c565b63ffffffff60e01b166301ffc9a760e01b81149081156102e0575b81156102cf575b506040519015158152f35b635b5e139f60e01b149050386102c4565b6380ac58cd60e01b811491506102bd565b60005b8381106103045750506000910152565b81810151838201526020016102f4565b9060209161032d815180928185528580860191016102f1565b601f01601f1916010190565b90602061034a928181520190610314565b90565b3461027e5760008060031936011261042f5760405190806002546103708161171b565b8085529160019180831690811561040557506001146103aa575b6103a68561039a81870382610ef0565b60405191829182610339565b0390f35b9250600283527f405787fa12a823e0f2b7631cc41b3ba8828b3321ca811111fa75cd3aa3bb5ace5b8284106103ed57505050810160200161039a826103a661038a565b805460208587018101919091529093019281016103d2565b8695506103a69693506020925061039a94915060ff191682840152151560051b820101929361038a565b80fd5b3461027e57602036600319011261027e5760043561044f816122e5565b15610474576000526006602052602060018060a01b0360406000205416604051908152f35b6040516333d1c03960e21b8152600490fd5b6001600160a01b0381160361027e57565b604036600319011261027e576004356104af81610486565b6024356001600160a01b03806104c48361226d565b169081330361051f575b600083815260066020526040812080546001600160a01b0319166001600160a01b0387161790559316907f8c5be1e5ebec7d5bd14f71427d1e84f3dd0314c0f7b2291e5b200ac8c7c3b9258480a480f35b600082815260076020908152604080832033845290915290205460ff166104ce576040516367d9dca160e11b8152600490fd5b3461027e57604036600319011261027e577f64f84976d9c917a44796104a59950fdbd9b3c16a5dd348b546d738301f6bd0686040600435602435610594611486565b8160095580600a5582519182526020820152a1005b3461027e57602036600319011261027e57600435600052600c602052608060406000208054906001810154906003600282015491015491604051938452602084015260408301526060820152f35b600036600319011261027e5761060b6114de565b5061062961061833611ac7565b6008546001600160a01b0316612046565b340361066957608061064261063d33612106565b611ae7565b60606040519180518352602081015160208401526040810151604084015201516060820152f35b602460095460405190638c4fcd9360e01b82526004820152fd5b3461027e57600036600319011261027e576020600954604051908152f35b3461027e57600036600319011261027e576000546001546040519103600019018152602090f35b3461027e57600036600319011261027e576020600a54604051908152f35b606090600319011261027e576004356106fe81610486565b9060243561070b81610486565b9060443590565b61072461071e366106e6565b91612320565b005b9181601f8401121561027e578235916001600160401b03831161027e576020838186019501011161027e57565b3461027e57606036600319011261027e5761076f600435610486565b6044356001600160401b03811161027e5761078e903690600401610726565b5050600d546001600160a01b031633036107fc5760006024358152601260205260408120548152600c6020526107f8604082206040516107cd81610eb5565b8154808252600183015491826020820152606060036002860154958660408501520154910152611dcf565b5080f35b6040516341460c0960e11b8152600490fd5b3461027e5760008060031936011261042f57338152600b6020528080808060408120818154915581811561084d575b3390f1156108485780f35b61170f565b506108fc61083d565b610724610862366106e6565b906040519261087084610ed5565b600084526124ee565b3461027e57604036600319011261027e576004356024356001600160a01b036108a18361226d565b1633036108ee5760207f1ea45e30b31292f9d7c5d37d275b2feca555f13f47dce0fdea2f47e8852ecd78918360005260108252806040600020556108e484611555565b50604051908152a2005b6040516330cd747160e01b8152600490fd5b3461027e57602036600319011261027e5760043561091d81610486565b60018060a01b0316600052600b6020526020604060002054604051908152f35b6020908160408183019282815285518094520193019160005b828110610964575050505090565b90919293826080826109af600194895162ffffff6060809260018060a01b0381511685526001600160401b036020820151166020860152604081015115156040860152015116910152565b01950193929101610956565b3461027e57602036600319011261027e576001600160401b0360043581811161027e573660238201121561027e57806004013591821161027e573660248360051b8301011161027e576103a6916024610a149201612761565b6040519182918261093d565b3461027e57602036600319011261027e5760206001600160a01b03610a4660043561226d565b16604051908152f35b3461027e57602036600319011261027e57600435610a6c81610486565b610a74611486565b600d80546001600160a01b0319166001600160a01b0392909216919091179055005b3461027e57600036600319011261027e57600d546040516001600160a01b039091168152602090f35b3461027e57602036600319011261027e576020610ae6600435610ae181610486565b612232565b604051908152f35b3461027e5760008060031936011261042f57610b08611486565b600880546001600160a01b0319811690915581906001600160a01b03167f8be0079c531659141344cd1fd0a4f28419497f9722a3daafe3b4186f6b6457e08280a380f35b6020908160408183019282815285518094520193019160005b828110610b73575050505090565b835185529381019392810192600101610b65565b3461027e57602036600319011261027e57600435610ba481610486565b60008091610bb181612232565b610bba816127f1565b92610bc36114de565b506001926001600160a01b0390811690845b848403610bea57604051806103a68982610b4c565b81610bf482612703565b876040820151610c365750511680610c2e575b50859083838a1614610c1a575b01610bd5565b80610c28838701968a61196f565b52610c14565b975085610c07565b92915050610c14565b3461027e57604036600319011261027e57610c5c60043533611a46565b610c6860243533611a46565b8101809111610c8e57610c7a33611ac7565b8101809111610c8e57602090604051908152f35b6115d1565b3461027e57600036600319011261027e576008546040516001600160a01b039091168152602090f35b3461027e5760008060031936011261042f576040519080600354610cdf8161171b565b808552916001918083169081156104055750600114610d08576103a68561039a81870382610ef0565b9250600383527fc2575a0e9e593c00f959f8c92f12db2869c3395a3b0502d05e2516446f71f85b5b828410610d4b57505050810160200161039a826103a661038a565b80546020858701810191909152909301928101610d30565b3461027e57602036600319011261027e576004356001600160a01b03610d888261226d565b1633036108ee576000908082526010602052816040812055610da981611650565b507fc40fdc946efe80191c467f60727c4abc08254a056035d467a4516a86005ab7638280a280f35b3461027e57606036600319011261027e576103a6610e01600435610df481610486565b6044359060243590612819565b60405191829182610b4c565b3461027e57604036600319011261027e57600435610e2a81610486565b6024359081151580920361027e573360009081526007602090815260408083206001600160a01b0385168452909152902060ff1981541660ff841617905560405191825260018060a01b0316907f17307eab39ab6107e8899845ad3d59bd9653f200f220920489ca2b5937696c3160203392a3005b634e487b7160e01b600052604160045260246000fd5b608081019081106001600160401b03821117610ed057604052565b610e9f565b602081019081106001600160401b03821117610ed057604052565b90601f801991011681019081106001600160401b03821117610ed057604052565b60405190604082018281106001600160401b03821117610ed057604052565b60405190610f3d82610eb5565b565b6001600160401b038111610ed057601f01601f191660200190565b608036600319011261027e57600435610f7281610486565b602435610f7e81610486565b606435916001600160401b03831161027e573660238401121561027e57826004013591610faa83610f3f565b92610fb86040519485610ef0565b808452366024828701011161027e57602081600092602461072498018388013785010152604435916124ee565b3461027e57602036600319011261027e5760806110036004356126a4565b611046604051809262ffffff6060809260018060a01b0381511685526001600160401b036020820151166020860152604081015115156040860152015116910152565bf35b3461027e57602036600319011261027e5760043560005260116020526103a66110926110a0604060002060405192839166697066733a2f2f60c81b602084015260278301906119c3565b03601f198101835282610ef0565b604051918291602083526020830190610314565b3461027e57608036600319011261027e576110d0600435610486565b604435600481101561027e576064356001600160401b03811161027e576110fb903690600401610726565b600d549091906001600160a01b031633036107fc57610724926024356117a9565b60208082019080835283518092528060408094019401926000905b83821061114657505050505090565b845180518752830151868401529485019493820193600190910190611137565b3461027e57604036600319011261027e57600435602435600e5480831160001461121657805b828201808311610c8e5781101561120f576111a792506115e7565b6111b0816118f1565b9160005b8281106111c957604051806103a6868261111c565b806111df6111da61120a9385611702565b611983565b6111e7610f11565b91825260208201526111f9828761196f565b52611204818661196f565b50611960565b6111b4565b50506111a7565b829061118c565b60408060031936011261027e576004356024359161124161123d836122e5565b1590565b6113385761125161123d846122e5565b61132157828214611311576008546112ca9061127f906001600160a01b031661127933611ac7565b90612046565b6001600160a01b03906112af906112b590828461129b8961226d565b166112a68933611a46565b600a549161208f565b90611702565b916112bf8761226d565b166112a68733611a46565b3481036112f857506112e96103a6936112e233612106565b9384611c8f565b50519081529081906020820190565b9051638c4fcd9360e01b81526004810191909152602490fd5b51635693858360e01b8152600490fd5b516303ff20ff60e31b815260048101839052602490fd5b516303ff20ff60e31b8152600481019190915260249150fd5b3461027e57604036600319011261027e57602060ff6113ad60043561137581610486565b6024359061138282610486565b60018060a01b03166000526007845260406000209060018060a01b0316600052602052604060002090565b54166040519015158152f35b3461027e57602036600319011261027e576004356113d681610486565b6113de611486565b6001600160a01b0390811690811561143257600854826bffffffffffffffffffffffff60a01b821617600855167f8be0079c531659141344cd1fd0a4f28419497f9722a3daafe3b4186f6b6457e0600080a3005b60405162461bcd60e51b815260206004820152602660248201527f4f776e61626c653a206e6577206f776e657220697320746865207a65726f206160448201526564647265737360d01b6064820152608490fd5b6008546001600160a01b0316330361149a57565b606460405162461bcd60e51b815260206004820152602060248201527f4f776e61626c653a2063616c6c6572206973206e6f7420746865206f776e65726044820152fd5b604051906114eb82610eb5565b60006060838281528260208201528260408201520152565b634e487b7160e01b600052603260045260246000fd5b600e5481101561155057600e6000527fbb7b4a454dc3493923482f07822329ed19e8244eff582cc204f8554c3620c3fd0190600090565b611503565b80600052600f602052604060002054156000146115cb57600e5468010000000000000000811015610ed0576001810180600e558110156115505781907fbb7b4a454dc3493923482f07822329ed19e8244eff582cc204f8554c3620c3fd0155600e5490600052600f602052604060002055600190565b50600090565b634e487b7160e01b600052601160045260246000fd5b91908203918211610c8e57565b600e54801561163a5760001981019080821015611550577fbb7b4a454dc3493923482f07822329ed19e8244eff582cc204f8554c3620c3fc600091600e83520155600e55565b634e487b7160e01b600052603160045260246000fd5b6000818152600f602052604090205480156116fb576000199181830191808311610c8e57600e54938401938411610c8e5783836116ab94600096036116b1575b50505061169b6115f4565b600052600f602052604060002090565b55600190565b61169b6116d9916116d16116c76116f295611519565b90549060031b1c90565b928391611519565b90919082549060031b91821b91600019901b1916179055565b55388080611690565b5050600090565b91908201809211610c8e57565b6040513d6000823e3d90fd5b90600182811c9216801561174b575b602083101461173557565b634e487b7160e01b600052602260045260246000fd5b91607f169161172a565b90601f811161176357505050565b600091825260208220906020601f850160051c8301941061179f575b601f0160051c01915b82811061179457505050565b818155600101611788565b909250829061177f565b9093929360048110156118c4576118be57600052602092601284526040600020546117d3816122e5565b156118b7576117ec906000526011602052604060002090565b916001600160401b038211610ed05761180f82611809855461171b565b85611755565b600094601f831160011461184c57509381929394600092611841575b50508160011b916000199060031b1c1916179055565b01359050388061182b565b90601f1983169561186285600052602060002090565b9281905b88821061189f57505083600195969710611885575b505050811b019055565b0135600019600384901b60f8161c1916905538808061187b565b80600184968294958701358155019501920190611866565b5050509050565b50509050565b634e487b7160e01b600052602160045260246000fd5b6001600160401b038111610ed05760051b60200190565b906118fb826118da565b604061190981519283610ef0565b838252819361191a601f19916118da565b01906000805b83811061192e575050505050565b825190838201918083106001600160401b03841117610ed0576020928552838152828481830152828801015201611920565b6000198114610c8e5760010190565b80518210156115505760209160051b010190565b600e54811015611550577fbb7b4a454dc3493923482f07822329ed19e8244eff582cc204f8554c3620c3fd01549081600052601060205260406000205490565b6000929181546119d28161171b565b92600191808316908115611a2b57506001146119ef575b50505050565b90919293945060005260209081600020906000915b858310611a1a57505050500190388080806119e9565b805485840152918301918101611a04565b60ff19168452505050811515909102019150388080806119e9565b8115908115611a79575b506115cb57611a5e90611a97565b9015611a675790565b60405163665c1c5760e01b8152600490fd5b90506001600160a01b0380611a8d8461226d565b1691161438611a50565b60005260106020526040600020548015600014611ac25750600f602052604060002054151590600090565b600191565b6008546001600160a01b03918216911603611ae157600090565b60095490565b90611b7a91611af46114de565b50611afd6114de565b50600080526011602052611b3b7f4ad3b33220dddc71b994a52d72c06b10862965f7d926534c05c00fb7e819e7b780611b3584611f03565b91611cdd565b600d54909190602090611b5e906001600160a01b03165b6001600160a01b031690565b9260405180968192631b32595960e31b83523060048401611da4565b0381600080965af1938415610848578294611c38575b507f2580176791e43ed57455c2a9954e597ac3307125a59e1fd2d3c54cdeeb0693d760408392611bbe610f30565b818152846020820152848382015260608101978852611c1081611beb84600052600c602052604060002090565b9060606003918051845560208101516001850155604081015160028501550151910155565b8051611c2789516000526012602052604060002090565b5596519082519182526020820152a3565b829194506040611c7f7f2580176791e43ed57455c2a9954e597ac3307125a59e1fd2d3c54cdeeb0693d79260203d8111611c88575b611c778183610ef0565b810190611d95565b95925050611b90565b503d611c6d565b929190611c9a6114de565b507f2580176791e43ed57455c2a9954e597ac3307125a59e1fd2d3c54cdeeb0693d76040611cc9848488611dcf565b9560608701519082519182526020820152a3565b601190611d379493611d51610f3d94600d6040519889957f7b225f6c696c797061645f74656d706c617465223a20226e6674726f7574222c60208801526910113632b33a111d101160b11b6040880152604a8701906119c3565b6c111610113934b3b43a111d101160991b815201906119c3565b6e111610113a37b5b2b724b2111d101160891b8152611d7a825180936020600f850191016102f1565b0161227d60f01b600f82015203600e19810185520183610ef0565b9081602091031261027e575190565b9291611dca60409160009360018060a01b03168652606060208701526060860190610314565b930152565b929190600090611ddd6114de565b506020611e4a611e17611dfa846000526011602052604060002090565b611e0e876000526011602052604060002090565b611b358a611f03565b600d54611e2c906001600160a01b0316611b52565b90604051958680948193631b32595960e31b83523060048401611da4565b03925af191821561084857600092611eaf575b50611eac9192611e6b610f30565b918683526020830152604082015260608101928352611e9981611beb8197600052600c602052604060002090565b5191516000526012602052604060002090565b55565b611eac9250611ecb9060203d8111611c8857611c778183610ef0565b91611e5d565b90611edb82610f3f565b611ee86040519182610ef0565b8281528092611ef9601f1991610f3f565b0190602036910137565b806000917a184f03e93ff9f4daa797ed6e38ed64bf6a1f01000000000000000080821015612038575b506d04ee2d6d415b85acef810000000080831015612029575b50662386f26fc100008083101561201a575b506305f5e1008083101561200b575b5061271080831015611ffc575b506064821015611fec575b600a80921015611fe2575b600190816021611f9a828701611ed1565b95860101905b611fac575b5050505090565b600019019083906f181899199a1a9b1b9c1cb0b131b232b360811b8282061a835304918215611fdd57919082611fa0565b611fa5565b9160010191611f89565b9190606460029104910191611f7e565b60049193920491019138611f73565b60089193920491019138611f66565b60109193920491019138611f57565b60209193920491019138611f45565b604093508104915038611f2c565b600182151715610c8e5760018060a01b03809116600052600b6020526040600020908154838101809111610c8e57909155600854166001600160a01b0316600052600b60205290565b9091808302908382041483151715610c8e5761271090049081830390838211610c8e576001600160a01b039081166000908152600b60205260409020805490928101908110610c8e57909155600854166001600160a01b03166000908152600b602052604090208054918201809211610c8e575590565b9060008054926040805161211981610ed5565b8381526001600160a01b038316600081815260056020908152604080832080546801000000000000000101905589835260049091529020600160e11b4260a01b831717905560018781019490917fddf252ad1be2c89b69c2b068fc378daa952ba7f163c4a11628f55a4df523b3ef898289838180a483875b888103612223575050501561221357848655803b6121b2575b505050505050565b879180805b6121d3575b50505050505081540361042f5780808080806121aa565b15612206575b866121eb61123d8684870196866125d2565b6121f557816121b7565b85516368d2bf6b60e11b8152600490fd5b8583106121d957806121bc565b8351622e076360e81b8152600490fd5b80848b858180a4018490612191565b6001600160a01b0316801561225b5760005260056020526001600160401b036040600020541690565b6040516323d3ad8160e21b8152600490fd5b600081806001111561228c575b604051636f96cda160e11b8152600490fd5b815481101561227a5781526004906020918083526040928383205494600160e01b8616156122bc5750505061227a565b93929190935b85156122d057505050505090565b600019018083528185528383205495506122c2565b80600111159081612314575b816122fa575090565b90506000526004602052600160e01b604060002054161590565b600054811091506122f1565b9061232a8361226d565b6001600160a01b03838116928282168490036124dd5760008681526006602052604090208054909261236b6001600160a01b03881633908114908414171590565b612482575b8216958615612470576123c3936123a192612466575b506001600160a01b0316600090815260056020526040902090565b80546000190190556001600160a01b0316600090815260056020526040902090565b80546001019055600160e11b804260a01b8517176123eb866000526004602052604060002090565b5581161561241c575b507fddf252ad1be2c89b69c2b068fc378daa952ba7f163c4a11628f55a4df523b3ef600080a4565b60018401612434816000526004602052604060002090565b5415612441575b506123f4565b600054811461243b5761245e906000526004602052604060002090565b55388061243b565b6000905538612386565b604051633a954ecd60e21b8152600490fd5b6124c661123d6124bf336124a88b60018060a01b03166000526007602052604060002090565b9060018060a01b0316600052602052604060002090565b5460ff1690565b1561237057604051632ce44b5f60e11b8152600490fd5b60405162a1148160e81b8152600490fd5b9291906124fc828286612320565b803b6125085750505050565b6125119361267b565b1561251f57388080806119e9565b6040516368d2bf6b60e11b8152600490fd5b9081602091031261027e575161034a8161026c565b61034a939260809260018060a01b031682526000602083015260408201528160608201520190610314565b6001600160a01b03918216815291166020820152604081019190915260806060820181905261034a92910190610314565b3d156125cd573d906125b382610f3f565b916125c16040519384610ef0565b82523d6000602084013e565b606090565b6125fb60209160009394604051948580948193630a85bd0160e11b998a84523360048501612546565b03926001600160a01b03165af16000918161264b575b5061263d5761261e6125a2565b80519081612638576040516368d2bf6b60e11b8152600490fd5b602001fd5b6001600160e01b0319161490565b61266d91925060203d8111612674575b6126658183610ef0565b810190612531565b9038612611565b503d61265b565b926020916125fb936000604051809681958294630a85bd0160e11b9a8b85523360048601612571565b6126ac6114de565b506126b56114de565b6001821080156126f7575b6126f257506126ce81612703565b60408101516126f257506126ed61034a916126e76114de565b5061226d565b61271e565b905090565b506000548210156126c0565b61270b6114de565b50600052600460205261034a6040600020545b906127276114de565b6001600160a01b038316815260a083901c6001600160401b03166020820152600160e01b83161515604082015260e89290921c6060830152565b61276a826118da565b916127786040519384610ef0565b808352601f19612787826118da565b0160005b8181106127da57505060005b8181036127a45750505090565b8181101561155057806127be60019260051b8501356126a4565b6127c8828761196f565b526127d3818661196f565b5001612797565b6020906127e56114de565b8282880101520161278b565b906127fb826118da565b6128086040519182610ef0565b8281528092611ef9601f19916118da565b908281101561295957600091825491600192838210612951575b808611612949575b5061284582612232565b918582101561294157818603838110612939575b505b612864836127f1565b958315612930578493612876846126a4565b91879460409361288b61123d86830151151590565b61291e575b50955b6128a4575b50505050505050815290565b8086141580612914575b1561290f5786866128bf8298612703565b8086015161290957516001600160a01b0390811680612901575b50808716908816146128ed575b0195612893565b806128fb838c019b8d61196f565b526128e6565b9750386128d9565b506128e6565b612898565b50818814156128ae565b516001600160a01b0316955038612890565b50505050505090565b925038612859565b84925061285b565b94503861283b565b839150612833565b604051631960ccad60e11b8152600490fdfea26469706673582212203a5c27e9c95ffd85b49c00f5a975dfe992a797f4bf2f60e1fe47b50a25b1eb1764736f6c63430008120033405787fa12a823e0f2b7631cc41b3ba8828b3321ca811111fa75cd3aa3bb5ace",
  "devdoc": {
    "events": {
      "Approval(address,address,uint256)": {
        "details": "Emitted when `owner` enables `approved` to manage the `tokenId` token."
      },
      "ApprovalForAll(address,address,bool)": {
        "details": "Emitted when `owner` enables or disables (`approved`) `operator` to manage all of its assets."
      },
      "ConsecutiveTransfer(uint256,uint256,address,address)": {
        "details": "Emitted when tokens in `fromTokenId` to `toTokenId` (inclusive) is transferred from `from` to `to`, as defined in the [ERC2309](https://eips.ethereum.org/EIPS/eip-2309) standard. See {_mintERC2309} for more details."
      },
      "Transfer(address,address,uint256)": {
        "details": "Emitted when `tokenId` token is transferred from `from` to `to`."
      }
    },
    "kind": "dev",
    "methods": {
      "approve(address,uint256)": {
        "details": "Gives permission to `to` to transfer `tokenId` token to another account. The approval is cleared when the token is transferred. Only a single account can be approved at a time, so approving the zero address clears previous approvals. Requirements: - The caller must own the token or be an approved operator. - `tokenId` must exist. Emits an {Approval} event."
      },
      "balanceOf(address)": {
        "details": "Returns the number of tokens in `owner`'s account."
      },
      "explicitOwnershipOf(uint256)": {
        "details": "Returns the `TokenOwnership` struct at `tokenId` without reverting. If the `tokenId` is out of bounds: - `addr = address(0)` - `startTimestamp = 0` - `burned = false` - `extraData = 0` If the `tokenId` is burned: - `addr = <Address of owner before token was burned>` - `startTimestamp = <Timestamp when token was burned>` - `burned = true` - `extraData = <Extra data when token was burned>` Otherwise: - `addr = <Address of owner>` - `startTimestamp = <Timestamp of start of ownership>` - `burned = false` - `extraData = <Extra data at start of ownership>`"
      },
      "explicitOwnershipsOf(uint256[])": {
        "details": "Returns an array of `TokenOwnership` structs at `tokenIds` in order. See {ERC721AQueryable-explicitOwnershipOf}"
      },
      "getApproved(uint256)": {
        "details": "Returns the account approved for `tokenId` token. Requirements: - `tokenId` must exist."
      },
      "isApprovedForAll(address,address)": {
        "details": "Returns if the `operator` is allowed to manage all of the assets of `owner`. See {setApprovalForAll}."
      },
      "name()": {
        "details": "Returns the token collection name."
      },
      "owner()": {
        "details": "Returns the address of the current owner."
      },
      "ownerOf(uint256)": {
        "details": "Returns the owner of the `tokenId` token. Requirements: - `tokenId` must exist."
      },
      "renounceOwnership()": {
        "details": "Leaves the contract without owner. It will not be possible to call `onlyOwner` functions anymore. Can only be called by the current owner. NOTE: Renouncing ownership will leave the contract without an owner, thereby removing any functionality that is only available to the owner."
      },
      "safeTransferFrom(address,address,uint256)": {
        "details": "Equivalent to `safeTransferFrom(from, to, tokenId, '')`."
      },
      "safeTransferFrom(address,address,uint256,bytes)": {
        "details": "Safely transfers `tokenId` token from `from` to `to`. Requirements: - `from` cannot be the zero address. - `to` cannot be the zero address. - `tokenId` token must exist and be owned by `from`. - If the caller is not `from`, it must be approved to move this token by either {approve} or {setApprovalForAll}. - If `to` refers to a smart contract, it must implement {IERC721Receiver-onERC721Received}, which is called upon a safe transfer. Emits a {Transfer} event."
      },
      "setApprovalForAll(address,bool)": {
        "details": "Approve or remove `operator` as an operator for the caller. Operators can call {transferFrom} or {safeTransferFrom} for any token owned by the caller. Requirements: - The `operator` cannot be the caller. Emits an {ApprovalForAll} event."
      },
      "supportsInterface(bytes4)": {
        "details": "Returns true if this contract implements the interface defined by `interfaceId`. See the corresponding [EIP section](https://eips.ethereum.org/EIPS/eip-165#how-interfaces-are-identified) to learn more about how these ids are created. This function call must use less than 30000 gas."
      },
      "symbol()": {
        "details": "Returns the token collection symbol."
      },
      "tokensOfOwner(address)": {
        "details": "Returns an array of token IDs owned by `owner`. This function scans the ownership mapping and is O(`totalSupply`) in complexity. It is meant to be called off-chain. See {ERC721AQueryable-tokensOfOwnerIn} for splitting the scan into multiple smaller scans if the collection is large enough to cause an out-of-gas error (10K collections should be fine)."
      },
      "tokensOfOwnerIn(address,uint256,uint256)": {
        "details": "Returns an array of token IDs owned by `owner`, in the range [`start`, `stop`) (i.e. `start <= tokenId < stop`). This function allows for tokens to be queried if the collection grows too big for a single call of {ERC721AQueryable-tokensOfOwner}. Requirements: - `start < stop`"
      },
      "totalSupply()": {
        "details": "Returns the total number of tokens in existence. Burned tokens will reduce the count. To get the total number of tokens minted, please see {_totalMinted}."
      },
      "transferFrom(address,address,uint256)": {
        "details": "Transfers `tokenId` from `from` to `to`. Requirements: - `from` cannot be the zero address. - `to` cannot be the zero address. - `tokenId` token must be owned by `from`. - If the caller is not `from`, it must be approved to move this token by either {approve} or {setApprovalForAll}. Emits a {Transfer} event."
      },
      "transferOwnership(address)": {
        "details": "Transfers ownership of the contract to a new account (`newOwner`). Can only be called by the current owner."
      }
    },
    "version": 1
  },
  "userdoc": {
    "errors": {
      "ApprovalCallerNotOwnerNorApproved()": [
        {
          "notice": "The caller must own the token or be an approved operator."
        }
      ],
      "ApprovalQueryForNonexistentToken()": [
        {
          "notice": "The token does not exist."
        }
      ],
      "BalanceQueryForZeroAddress()": [
        {
          "notice": "Cannot query the balance for the zero address."
        }
      ],
      "CannotSelfBreed()": [
        {
          "notice": "A trout cannot breed with itself."
        }
      ],
      "InvalidQueryRange()": [
        {
          "notice": "Invalid query range (`start` >= `stop`)."
        }
      ],
      "MintERC2309QuantityExceedsLimit()": [
        {
          "notice": "The `quantity` minted with ERC2309 exceeds the safety limit."
        }
      ],
      "MintToZeroAddress()": [
        {
          "notice": "Cannot mint to the zero address."
        }
      ],
      "MintZeroQuantity()": [
        {
          "notice": "The quantity of tokens minted must be more than zero."
        }
      ],
      "NoSuchToken(uint256)": [
        {
          "notice": "The token does not exist;"
        }
      ],
      "NotLilypad()": [
        {
          "notice": "The caller must be lilypad."
        }
      ],
      "NotListed()": [
        {
          "notice": "One of the trout you tried to breed is neither owned by you nor listed for public breeding."
        }
      ],
      "NotOwner()": [
        {
          "notice": "You are not the owner of the trout;"
        }
      ],
      "OwnerQueryForNonexistentToken()": [
        {
          "notice": "The token does not exist."
        }
      ],
      "OwnershipNotInitializedForExtraData()": [
        {
          "notice": "The `extraData` cannot be set on an unintialized ownership slot."
        }
      ],
      "PaymentRequired(uint256)": [
        {
          "notice": "Not enough value was sent."
        }
      ],
      "TransferCallerNotOwnerNorApproved()": [
        {
          "notice": "The caller must own the token or be an approved operator."
        }
      ],
      "TransferFromIncorrectOwner()": [
        {
          "notice": "The token must be owned by `from`."
        }
      ],
      "TransferToNonERC721ReceiverImplementer()": [
        {
          "notice": "Cannot safely transfer to a contract that does not implement the ERC721Receiver interface."
        }
      ],
      "TransferToZeroAddress()": [
        {
          "notice": "Cannot transfer to the zero address."
        }
      ],
      "URIQueryForNonexistentToken()": [
        {
          "notice": "The token does not exist."
        }
      ]
    },
    "events": {
      "Delisted(uint256)": {
        "notice": "The trout is no longer breedable."
      },
      "Listed(uint256,uint256)": {
        "notice": "The trout was listed as breedable."
      },
      "Spawned(uint256,uint256,uint256,uint256)": {
        "notice": "Two trouts have bred to produce a new trout."
      }
    },
    "kind": "user",
    "methods": {
      "breed(uint256,uint256)": {
        "notice": "Breeds any two trout to produce a third trout that will be owned by the caller. This method must be called with enough value to pay for the two trouts' fees and the minting fee."
      },
      "delist(uint256)": {
        "notice": "Makes a trout not breedable."
      },
      "getBreedingFee(uint256,uint256)": {
        "notice": "Returns the number of tokens that must be paid to breed the two trout. This is also the minting fee when the parents are unset."
      },
      "getStuds(uint256,uint256)": {
        "notice": "Paginated list of trout listed for breeding."
      },
      "list(uint256,uint256)": {
        "notice": "Makes a trout breedable."
      },
      "mint()": {
        "notice": "Transmutes money into trout."
      }
    },
    "version": 1
  },
  "storageLayout": {
    "storage": [
      {
        "astId": 4460,
        "contract": "contracts/NFTrout.sol:NFTrout",
        "label": "_currentIndex",
        "offset": 0,
        "slot": "0",
        "type": "t_uint256"
      },
      {
        "astId": 4462,
        "contract": "contracts/NFTrout.sol:NFTrout",
        "label": "_burnCounter",
        "offset": 0,
        "slot": "1",
        "type": "t_uint256"
      },
      {
        "astId": 4464,
        "contract": "contracts/NFTrout.sol:NFTrout",
        "label": "_name",
        "offset": 0,
        "slot": "2",
        "type": "t_string_storage"
      },
      {
        "astId": 4466,
        "contract": "contracts/NFTrout.sol:NFTrout",
        "label": "_symbol",
        "offset": 0,
        "slot": "3",
        "type": "t_string_storage"
      },
      {
        "astId": 4470,
        "contract": "contracts/NFTrout.sol:NFTrout",
        "label": "_packedOwnerships",
        "offset": 0,
        "slot": "4",
        "type": "t_mapping(t_uint256,t_uint256)"
      },
      {
        "astId": 4474,
        "contract": "contracts/NFTrout.sol:NFTrout",
        "label": "_packedAddressData",
        "offset": 0,
        "slot": "5",
        "type": "t_mapping(t_address,t_uint256)"
      },
      {
        "astId": 4479,
        "contract": "contracts/NFTrout.sol:NFTrout",
        "label": "_tokenApprovals",
        "offset": 0,
        "slot": "6",
        "type": "t_mapping(t_uint256,t_struct(TokenApprovalRef)4392_storage)"
      },
      {
        "astId": 4485,
        "contract": "contracts/NFTrout.sol:NFTrout",
        "label": "_operatorApprovals",
        "offset": 0,
        "slot": "7",
        "type": "t_mapping(t_address,t_mapping(t_address,t_bool))"
      },
      {
        "astId": 7,
        "contract": "contracts/NFTrout.sol:NFTrout",
        "label": "_owner",
        "offset": 0,
        "slot": "8",
        "type": "t_address"
      },
      {
        "astId": 3097,
        "contract": "contracts/NFTrout.sol:NFTrout",
        "label": "mintFee",
        "offset": 0,
        "slot": "9",
        "type": "t_uint256"
      },
      {
        "astId": 3099,
        "contract": "contracts/NFTrout.sol:NFTrout",
        "label": "matchmakingBps",
        "offset": 0,
        "slot": "10",
        "type": "t_uint256"
      },
      {
        "astId": 3103,
        "contract": "contracts/NFTrout.sol:NFTrout",
        "label": "earnings",
        "offset": 0,
        "slot": "11",
        "type": "t_mapping(t_address,t_uint256)"
      },
      {
        "astId": 3109,
        "contract": "contracts/NFTrout.sol:NFTrout",
        "label": "receipts",
        "offset": 0,
        "slot": "12",
        "type": "t_mapping(t_userDefinedValueType(TokenId)3006,t_struct(Receipt)3089_storage)"
      },
      {
        "astId": 3112,
        "contract": "contracts/NFTrout.sol:NFTrout",
        "label": "lilypadEvents",
        "offset": 0,
        "slot": "13",
        "type": "t_contract(LilypadEvents)4368"
      },
      {
        "astId": 3116,
        "contract": "contracts/NFTrout.sol:NFTrout",
        "label": "studs",
        "offset": 0,
        "slot": "14",
        "type": "t_struct(UintToUintMap)1494_storage"
      },
      {
        "astId": 3121,
        "contract": "contracts/NFTrout.sol:NFTrout",
        "label": "tokenCids",
        "offset": 0,
        "slot": "17",
        "type": "t_mapping(t_userDefinedValueType(TokenId)3006,t_string_storage)"
      },
      {
        "astId": 3127,
        "contract": "contracts/NFTrout.sol:NFTrout",
        "label": "tokensByJob",
        "offset": 0,
        "slot": "18",
        "type": "t_mapping(t_userDefinedValueType(JobId)3004,t_userDefinedValueType(TokenId)3006)"
      }
    ],
    "types": {
      "t_address": {
        "encoding": "inplace",
        "label": "address",
        "numberOfBytes": "20"
      },
      "t_array(t_bytes32)dyn_storage": {
        "base": "t_bytes32",
        "encoding": "dynamic_array",
        "label": "bytes32[]",
        "numberOfBytes": "32"
      },
      "t_bool": {
        "encoding": "inplace",
        "label": "bool",
        "numberOfBytes": "1"
      },
      "t_bytes32": {
        "encoding": "inplace",
        "label": "bytes32",
        "numberOfBytes": "32"
      },
      "t_contract(LilypadEvents)4368": {
        "encoding": "inplace",
        "label": "contract LilypadEvents",
        "numberOfBytes": "20"
      },
      "t_mapping(t_address,t_bool)": {
        "encoding": "mapping",
        "key": "t_address",
        "label": "mapping(address => bool)",
        "numberOfBytes": "32",
        "value": "t_bool"
      },
      "t_mapping(t_address,t_mapping(t_address,t_bool))": {
        "encoding": "mapping",
        "key": "t_address",
        "label": "mapping(address => mapping(address => bool))",
        "numberOfBytes": "32",
        "value": "t_mapping(t_address,t_bool)"
      },
      "t_mapping(t_address,t_uint256)": {
        "encoding": "mapping",
        "key": "t_address",
        "label": "mapping(address => uint256)",
        "numberOfBytes": "32",
        "value": "t_uint256"
      },
      "t_mapping(t_bytes32,t_bytes32)": {
        "encoding": "mapping",
        "key": "t_bytes32",
        "label": "mapping(bytes32 => bytes32)",
        "numberOfBytes": "32",
        "value": "t_bytes32"
      },
      "t_mapping(t_bytes32,t_uint256)": {
        "encoding": "mapping",
        "key": "t_bytes32",
        "label": "mapping(bytes32 => uint256)",
        "numberOfBytes": "32",
        "value": "t_uint256"
      },
      "t_mapping(t_uint256,t_struct(TokenApprovalRef)4392_storage)": {
        "encoding": "mapping",
        "key": "t_uint256",
        "label": "mapping(uint256 => struct ERC721A.TokenApprovalRef)",
        "numberOfBytes": "32",
        "value": "t_struct(TokenApprovalRef)4392_storage"
      },
      "t_mapping(t_uint256,t_uint256)": {
        "encoding": "mapping",
        "key": "t_uint256",
        "label": "mapping(uint256 => uint256)",
        "numberOfBytes": "32",
        "value": "t_uint256"
      },
      "t_mapping(t_userDefinedValueType(JobId)3004,t_userDefinedValueType(TokenId)3006)": {
        "encoding": "mapping",
        "key": "t_userDefinedValueType(JobId)3004",
        "label": "mapping(JobId => TokenId)",
        "numberOfBytes": "32",
        "value": "t_userDefinedValueType(TokenId)3006"
      },
      "t_mapping(t_userDefinedValueType(TokenId)3006,t_string_storage)": {
        "encoding": "mapping",
        "key": "t_userDefinedValueType(TokenId)3006",
        "label": "mapping(TokenId => string)",
        "numberOfBytes": "32",
        "value": "t_string_storage"
      },
      "t_mapping(t_userDefinedValueType(TokenId)3006,t_struct(Receipt)3089_storage)": {
        "encoding": "mapping",
        "key": "t_userDefinedValueType(TokenId)3006",
        "label": "mapping(TokenId => struct NFTrout.Receipt)",
        "numberOfBytes": "32",
        "value": "t_struct(Receipt)3089_storage"
      },
      "t_string_storage": {
        "encoding": "bytes",
        "label": "string",
        "numberOfBytes": "32"
      },
      "t_struct(Bytes32Set)2575_storage": {
        "encoding": "inplace",
        "label": "struct EnumerableSet.Bytes32Set",
        "members": [
          {
            "astId": 2574,
            "contract": "contracts/NFTrout.sol:NFTrout",
            "label": "_inner",
            "offset": 0,
            "slot": "0",
            "type": "t_struct(Set)2381_storage"
          }
        ],
        "numberOfBytes": "64"
      },
      "t_struct(Bytes32ToBytes32Map)1264_storage": {
        "encoding": "inplace",
        "label": "struct EnumerableMap.Bytes32ToBytes32Map",
        "members": [
          {
            "astId": 1259,
            "contract": "contracts/NFTrout.sol:NFTrout",
            "label": "_keys",
            "offset": 0,
            "slot": "0",
            "type": "t_struct(Bytes32Set)2575_storage"
          },
          {
            "astId": 1263,
            "contract": "contracts/NFTrout.sol:NFTrout",
            "label": "_values",
            "offset": 0,
            "slot": "2",
            "type": "t_mapping(t_bytes32,t_bytes32)"
          }
        ],
        "numberOfBytes": "96"
      },
      "t_struct(Receipt)3089_storage": {
        "encoding": "inplace",
        "label": "struct NFTrout.Receipt",
        "members": [
          {
            "astId": 3079,
            "contract": "contracts/NFTrout.sol:NFTrout",
            "label": "tokenId",
            "offset": 0,
            "slot": "0",
            "type": "t_userDefinedValueType(TokenId)3006"
          },
          {
            "astId": 3082,
            "contract": "contracts/NFTrout.sol:NFTrout",
            "label": "left",
            "offset": 0,
            "slot": "1",
            "type": "t_userDefinedValueType(TokenId)3006"
          },
          {
            "astId": 3085,
            "contract": "contracts/NFTrout.sol:NFTrout",
            "label": "right",
            "offset": 0,
            "slot": "2",
            "type": "t_userDefinedValueType(TokenId)3006"
          },
          {
            "astId": 3088,
            "contract": "contracts/NFTrout.sol:NFTrout",
            "label": "jobId",
            "offset": 0,
            "slot": "3",
            "type": "t_userDefinedValueType(JobId)3004"
          }
        ],
        "numberOfBytes": "128"
      },
      "t_struct(Set)2381_storage": {
        "encoding": "inplace",
        "label": "struct EnumerableSet.Set",
        "members": [
          {
            "astId": 2376,
            "contract": "contracts/NFTrout.sol:NFTrout",
            "label": "_values",
            "offset": 0,
            "slot": "0",
            "type": "t_array(t_bytes32)dyn_storage"
          },
          {
            "astId": 2380,
            "contract": "contracts/NFTrout.sol:NFTrout",
            "label": "_indexes",
            "offset": 0,
            "slot": "1",
            "type": "t_mapping(t_bytes32,t_uint256)"
          }
        ],
        "numberOfBytes": "64"
      },
      "t_struct(TokenApprovalRef)4392_storage": {
        "encoding": "inplace",
        "label": "struct ERC721A.TokenApprovalRef",
        "members": [
          {
            "astId": 4391,
            "contract": "contracts/NFTrout.sol:NFTrout",
            "label": "value",
            "offset": 0,
            "slot": "0",
            "type": "t_address"
          }
        ],
        "numberOfBytes": "32"
      },
      "t_struct(UintToUintMap)1494_storage": {
        "encoding": "inplace",
        "label": "struct EnumerableMap.UintToUintMap",
        "members": [
          {
            "astId": 1493,
            "contract": "contracts/NFTrout.sol:NFTrout",
            "label": "_inner",
            "offset": 0,
            "slot": "0",
            "type": "t_struct(Bytes32ToBytes32Map)1264_storage"
          }
        ],
        "numberOfBytes": "96"
      },
      "t_uint256": {
        "encoding": "inplace",
        "label": "uint256",
        "numberOfBytes": "32"
      },
      "t_userDefinedValueType(JobId)3004": {
        "encoding": "inplace",
        "label": "JobId",
        "numberOfBytes": "32"
      },
      "t_userDefinedValueType(TokenId)3006": {
        "encoding": "inplace",
        "label": "TokenId",
        "numberOfBytes": "32"
      }
    }
  }
}